{"abi":[{"type":"constructor","inputs":[],"stateMutability":"nonpayable"},{"type":"function","name":"ADMIN","inputs":[],"outputs":[{"name":"","type":"bytes32","internalType":"bytes32"}],"stateMutability":"view"},{"type":"function","name":"DEFAULT_ADMIN_ROLE","inputs":[],"outputs":[{"name":"","type":"bytes32","internalType":"bytes32"}],"stateMutability":"view"},{"type":"function","name":"MANAGER","inputs":[],"outputs":[{"name":"","type":"bytes32","internalType":"bytes32"}],"stateMutability":"view"},{"type":"function","name":"bootcamps","inputs":[{"name":"","type":"uint256","internalType":"uint256"}],"outputs":[{"name":"id","type":"uint256","internalType":"uint256"},{"name":"depositAmount","type":"uint256","internalType":"uint256"},{"name":"depositToken","type":"address","internalType":"address"},{"name":"bootcampAddress","type":"address","internalType":"address"}],"stateMutability":"view"},{"type":"function","name":"createBootcamp","inputs":[{"name":"_depositAmount","type":"uint256","internalType":"uint256"},{"name":"_depositToken","type":"address","internalType":"address"},{"name":"_bootcampStartTime","type":"uint256","internalType":"uint256"}],"outputs":[],"stateMutability":"nonpayable"},{"type":"function","name":"getRoleAdmin","inputs":[{"name":"role","type":"bytes32","internalType":"bytes32"}],"outputs":[{"name":"","type":"bytes32","internalType":"bytes32"}],"stateMutability":"view"},{"type":"function","name":"grantARole","inputs":[{"name":"_role","type":"bytes32","internalType":"bytes32"},{"name":"_account","type":"address","internalType":"address"}],"outputs":[],"stateMutability":"nonpayable"},{"type":"function","name":"grantRole","inputs":[{"name":"role","type":"bytes32","internalType":"bytes32"},{"name":"account","type":"address","internalType":"address"}],"outputs":[],"stateMutability":"nonpayable"},{"type":"function","name":"hasRole","inputs":[{"name":"role","type":"bytes32","internalType":"bytes32"},{"name":"account","type":"address","internalType":"address"}],"outputs":[{"name":"","type":"bool","internalType":"bool"}],"stateMutability":"view"},{"type":"function","name":"renounceRole","inputs":[{"name":"role","type":"bytes32","internalType":"bytes32"},{"name":"callerConfirmation","type":"address","internalType":"address"}],"outputs":[],"stateMutability":"nonpayable"},{"type":"function","name":"revokeARole","inputs":[{"name":"_role","type":"bytes32","internalType":"bytes32"},{"name":"_account","type":"address","internalType":"address"}],"outputs":[],"stateMutability":"nonpayable"},{"type":"function","name":"revokeRole","inputs":[{"name":"role","type":"bytes32","internalType":"bytes32"},{"name":"account","type":"address","internalType":"address"}],"outputs":[],"stateMutability":"nonpayable"},{"type":"function","name":"supportsInterface","inputs":[{"name":"interfaceId","type":"bytes4","internalType":"bytes4"}],"outputs":[{"name":"","type":"bool","internalType":"bool"}],"stateMutability":"view"},{"type":"function","name":"totalBootcampAmount","inputs":[],"outputs":[{"name":"","type":"uint256","internalType":"uint256"}],"stateMutability":"view"},{"type":"event","name":"BootcampCreated","inputs":[{"name":"bootcampId","type":"uint256","indexed":true,"internalType":"uint256"},{"name":"bootcampAddress","type":"address","indexed":true,"internalType":"address"}],"anonymous":false},{"type":"event","name":"RoleAdminChanged","inputs":[{"name":"role","type":"bytes32","indexed":true,"internalType":"bytes32"},{"name":"previousAdminRole","type":"bytes32","indexed":true,"internalType":"bytes32"},{"name":"newAdminRole","type":"bytes32","indexed":true,"internalType":"bytes32"}],"anonymous":false},{"type":"event","name":"RoleGranted","inputs":[{"name":"role","type":"bytes32","indexed":true,"internalType":"bytes32"},{"name":"account","type":"address","indexed":true,"internalType":"address"},{"name":"sender","type":"address","indexed":true,"internalType":"address"}],"anonymous":false},{"type":"event","name":"RoleRevoked","inputs":[{"name":"role","type":"bytes32","indexed":true,"internalType":"bytes32"},{"name":"account","type":"address","indexed":true,"internalType":"address"},{"name":"sender","type":"address","indexed":true,"internalType":"address"}],"anonymous":false},{"type":"error","name":"AccessControlBadConfirmation","inputs":[]},{"type":"error","name":"AccessControlUnauthorizedAccount","inputs":[{"name":"account","type":"address","internalType":"address"},{"name":"neededRole","type":"bytes32","internalType":"bytes32"}]},{"type":"error","name":"BootcampFactory__CanNotGrantRoleToZeroAddress","inputs":[]},{"type":"error","name":"BootcampFactory__CanNotRevokeRoleFromZeroAddress","inputs":[]},{"type":"error","name":"BootcampFactory__DepositTokenCanNotBeZeroAddress","inputs":[]},{"type":"error","name":"BootcampFactory__GrantNonExistentRole","inputs":[]},{"type":"error","name":"BootcampFactory__InvalidBootcampStartTime","inputs":[]}],"bytecode":{"object":"0x608060405234801561001057600080fd5b50610029600080516020611b4e83398151915233610067565b506100627faf290d8680820aad922855f39b306097b20e28774d6c1ad35a20325630c3a02c600080516020611b4e833981519152610113565b61015e565b6000828152602081815260408083206001600160a01b038516845290915281205460ff16610109576000838152602081815260408083206001600160a01b03861684529091529020805460ff191660011790556100c13390565b6001600160a01b0316826001600160a01b0316847f2f8788117e7eff1d82e926ec794901d17c78024a50270940304540a733656f0d60405160405180910390a450600161010d565b5060005b92915050565b600082815260208190526040808220600101805490849055905190918391839186917fbd79b86ffe0ab8e8776151514217cd7cacd52c909f66475c3af44e129f0b00ff9190a4505050565b6119e18061016d6000396000f3fe608060405234801561001057600080fd5b50600436106100ea5760003560e01c806391d148541161008c578063cef66e6011610066578063cef66e60146101db578063d547741f146101ee578063eb2ab79e14610201578063ed069e2d1461020a57600080fd5b806391d14854146101ad578063a217fddf146101c0578063ab2a930d146101c857600080fd5b8063248a9ca3116100c8578063248a9ca31461014f5780632a0acc6a146101725780632f2ff15d1461018757806336568abe1461019a57600080fd5b806301908f72146100ef57806301ffc9a7146101045780631b2df8501461012c575b600080fd5b6101026100fd366004610757565b61027c565b005b61011761011236600461078d565b6103f4565b60405190151581526020015b60405180910390f35b61014160008051602061196c83398151915281565b604051908152602001610123565b61014161015d3660046107be565b60009081526020819052604090206001015490565b61014160008051602061198c83398151915281565b6101026101953660046107d7565b61042b565b6101026101a83660046107d7565b610456565b6101176101bb3660046107d7565b61048e565b610141600081565b6101026101d63660046107d7565b6104b7565b6101026101e93660046107d7565b610547565b6101026101fc3660046107d7565b6105be565b61014160015481565b61024d6102183660046107be565b600260208190526000918252604090912080546001820154928201546003909201549092916001600160a01b03908116911684565b6040805194855260208501939093526001600160a01b0391821692840192909252166060820152608001610123565b60008051602061196c833981519152610294816105e3565b6001600160a01b0383166102bb576040516319ef6c4960e11b815260040160405180910390fd5b4282116102db57604051631b07d99f60e11b815260040160405180910390fd5b6000848433856040516102ed9061072e565b9384526001600160a01b039283166020850152911660408301526060820152608001604051809103906000f08015801561032b573d6000803e3d6000fd5b5060018054919250600061033e83610803565b9091555050600180546040805160808101825282815260208082018a81526001600160a01b03808b1684860190815288821660608601818152600089815260029687905288812097518855945199870199909955905193850180549483166001600160a01b03199586161790559651600390940180549490911693909216929092179055905191929183917fcf5b09c7ea80d2340fffa685cc78c064503c74485ab06331bb00a6831721aa0a91a3505050505050565b60006001600160e01b03198216637965db0b60e01b148061042557506301ffc9a760e01b6001600160e01b03198316145b92915050565b600082815260208190526040902060010154610446816105e3565b61045083836105f0565b50505050565b6001600160a01b038116331461047f5760405163334bd91960e11b815260040160405180910390fd5b6104898282610682565b505050565b6000918252602082815260408084206001600160a01b0393909316845291905290205460ff1690565b60008051602061198c8339815191526104cf816105e3565b6001600160a01b0382166104f6576040516398a384a360e01b815260040160405180910390fd5b60008051602061198c83398151915283148061051f575060008051602061196c83398151915283145b1561052e5761045083836105f0565b6040516350b0122b60e11b815260040160405180910390fd5b60008051602061198c83398151915261055f816105e3565b6001600160a01b038216610586576040516353f531e160e01b815260040160405180910390fd5b60008051602061198c8339815191528314806105af575060008051602061196c83398151915283145b1561052e576104508383610682565b6000828152602081905260409020600101546105d9816105e3565b6104508383610682565b6105ed81336106ed565b50565b60006105fc838361048e565b61067a576000838152602081815260408083206001600160a01b03861684529091529020805460ff191660011790556106323390565b6001600160a01b0316826001600160a01b0316847f2f8788117e7eff1d82e926ec794901d17c78024a50270940304540a733656f0d60405160405180910390a4506001610425565b506000610425565b600061068e838361048e565b1561067a576000838152602081815260408083206001600160a01b0386168085529252808320805460ff1916905551339286917ff6391f5c32d9c69d2a47ea670b442974b53935d1edc7fd64eb21e047a839171b9190a4506001610425565b6106f7828261048e565b61072a5760405163e2517d3f60e01b81526001600160a01b03821660048201526024810183905260440160405180910390fd5b5050565b6111418061082b83390190565b80356001600160a01b038116811461075257600080fd5b919050565b60008060006060848603121561076c57600080fd5b8335925061077c6020850161073b565b929592945050506040919091013590565b60006020828403121561079f57600080fd5b81356001600160e01b0319811681146107b757600080fd5b9392505050565b6000602082840312156107d057600080fd5b5035919050565b600080604083850312156107ea57600080fd5b823591506107fa6020840161073b565b90509250929050565b60006001820161082357634e487b7160e01b600052601160045260246000fd5b506001019056fe60e060405234801561001057600080fd5b5060405161114138038061114183398101604081905261002f91610135565b6000805460ff1916905560808490526001600160a01b03831660c05260a081905261007a7faf290d8680820aad922855f39b306097b20e28774d6c1ad35a20325630c3a02c83610084565b5050505050610179565b60008281526001602090815260408083206001600160a01b038516845290915281205460ff1661010f5760008381526001602081815260408084206001600160a01b0387168086529252808420805460ff19169093179092559051339286917f2f8788117e7eff1d82e926ec794901d17c78024a50270940304540a733656f0d9190a4506001610113565b5060005b92915050565b80516001600160a01b038116811461013057600080fd5b919050565b6000806000806080858703121561014b57600080fd5b8451935061015b60208601610119565b925061016960408601610119565b6060959095015193969295505050565b60805160a05160c051610f6f6101d2600039600081816102ea015281816105950152818161075d0152610a1e0152600081816102c301526106060152600081816102350152818161064701526109250152610f6f6000f3fe608060405234801561001057600080fd5b50600436106101415760003560e01c80635c975abb116100b8578063a217fddf1161007c578063a217fddf146102b6578063a63f137a146102be578063c89039c5146102e5578063d547741f1461030c578063db2e21bc1461031f578063fc7e286d1461032757600080fd5b80635c975abb1461026a5780636c0304c9146102755780636e553f651461027d57806377a45f6f1461029057806391d14854146102a357600080fd5b8063248a9ca31161010a578063248a9ca3146101de5780632f2ff15d1461020257806336568abe1461021557806341819d2714610228578063419759f5146102305780635380b5651461025757600080fd5b8062f714ce1461014657806301ffc9a71461015b5780631a26af7a146101835780631b2df850146101905780631c2161c1146101b3575b600080fd5b610159610154366004610d06565b61035f565b005b61016e610169366004610d32565b6103ba565b60405190151581526020015b60405180910390f35b60035461016e9060ff1681565b6101a5600080516020610f1a83398151915281565b60405190815260200161017a565b6101c66101c1366004610d63565b6103f1565b6040516001600160a01b03909116815260200161017a565b6101a56101ec366004610d63565b6000908152600160208190526040909120015490565b610159610210366004610d06565b61041b565b610159610223366004610d06565b610441565b610159610479565b6101a57f000000000000000000000000000000000000000000000000000000000000000081565b610159610265366004610d8b565b6104a6565b60005460ff1661016e565b61015961052c565b61015961028b366004610d06565b61055c565b61015961029e366004610e11565b610815565b61016e6102b1366004610d06565b610838565b6101a5600081565b6101a57f000000000000000000000000000000000000000000000000000000000000000081565b6101c67f000000000000000000000000000000000000000000000000000000000000000081565b61015961031a366004610d06565b610863565b610159610889565b610351610335366004610e44565b6004602052600090815260409020805460019091015460ff1682565b60405161017a929190610e75565b33600090815260046020526040902060019081015460ff168181600381111561038a5761038a610e5f565b146103a8576040516370d750d160e11b815260040160405180910390fd5b6103b484846002610988565b50505050565b60006001600160e01b03198216637965db0b60e01b14806103eb57506301ffc9a760e01b6001600160e01b03198316145b92915050565b6002818154811061040157600080fd5b6000918252602090912001546001600160a01b0316905081565b6000828152600160208190526040909120015461043781610acd565b6103b48383610ada565b6001600160a01b038116331461046a5760405163334bd91960e11b815260040160405180910390fd5b6104748282610b53565b505050565b610481610bc0565b600080516020610f1a83398151915261049981610acd565b506003805460ff19169055565b600080516020610f1a8339815191526104be81610acd565b8260008190036104e1576040516372d9e5c360e01b815260040160405180910390fd5b60005b818110156105245761051c86868381811061050157610501610ea7565b90506020020160208101906105169190610e44565b85610be6565b6001016104e4565b505050505050565b610534610bc0565b600080516020610f1a83398151915261054c81610acd565b506003805460ff19166001179055565b610564610bc0565b61056d81610c4b565b604051636eb1769f60e11b81526001600160a01b0382811660048301523060248301526000917f00000000000000000000000000000000000000000000000000000000000000009091169063dd62ed3e90604401602060405180830381865afa1580156105de573d6000803e3d6000fd5b505050506040513d601f19601f820116820180604052508101906106029190610ebd565b90507f000000000000000000000000000000000000000000000000000000000000000042111561064557604051633eec048360e21b815260040160405180910390fd5b7f0000000000000000000000000000000000000000000000000000000000000000831461068d57604051631f49b00160e01b8152600481018490526024015b60405180910390fd5b828110156106b157604051631c59319f60e11b815260048101829052602401610684565b6001600160a01b038216600090815260046020526040812060018101805460ff1916905580548592906106e5908490610ed6565b9091555050600280546001810182556000919091527f405787fa12a823e0f2b7631cc41b3ba8828b3321ca811111fa75cd3aa3bb5ace0180546001600160a01b0319166001600160a01b038481169182179092556040516323b872dd60e01b81526004810191909152306024820152604481018590527f0000000000000000000000000000000000000000000000000000000000000000909116906323b872dd906064016020604051808303816000875af11580156107a8573d6000803e3d6000fd5b505050506040513d601f19601f820116820180604052508101906107cc9190610ef7565b50604080516001600160a01b0384168152602081018590527f5c5c52faf0379d6438710fab5583f7bf4001bbc1c48b855499e7f9a7183e0fec91015b60405180910390a1505050565b600080516020610f1a83398151915261082d81610acd565b6103b4848484610988565b60009182526001602090815260408084206001600160a01b0393909316845291905290205460ff1690565b6000828152600160208190526040909120015461087f81610acd565b6103b48383610b53565b600080516020610f1a8339815191526108a181610acd565b60035460ff166108c457604051631e21ef5760e21b815260040160405180910390fd5b6000600280548060200260200160405190810160405280929190818152602001828054801561091c57602002820191906000526020600020905b81546001600160a01b031681526001909101906020018083116108fe575b505083519394507f0000000000000000000000000000000000000000000000000000000000000000925060009150505b82811015610981576109798285838151811061096a5761096a610ea7565b60200260200101516002610988565b60010161094c565b5050505050565b610990610bc0565b61099982610c4b565b6109a38383610c72565b6001600160a01b038216600090815260046020526040902060019081018054839260ff19909116908360038111156109dd576109dd610e5f565b02179055506001600160a01b03828116600081815260046020819052604080832092909255905163a9059cbb60e01b815290810191909152602481018590527f00000000000000000000000000000000000000000000000000000000000000009091169063a9059cbb906044016020604051808303816000875af1158015610a69573d6000803e3d6000fd5b505050506040513d601f19601f82011682018060405250810190610a8d9190610ef7565b50604080516001600160a01b0384168152602081018590527f4482101800a5c2e900f4156e57e05e19ffd7b366cde579553d723fd3abb2180e9101610808565b610ad78133610cb1565b50565b6000610ae68383610838565b610b4b5760008381526001602081815260408084206001600160a01b0387168086529252808420805460ff19169093179092559051339286917f2f8788117e7eff1d82e926ec794901d17c78024a50270940304540a733656f0d9190a45060016103eb565b5060006103eb565b6000610b5f8383610838565b15610b4b5760008381526001602090815260408083206001600160a01b0386168085529252808320805460ff1916905551339286917ff6391f5c32d9c69d2a47ea670b442974b53935d1edc7fd64eb21e047a839171b9190a45060016103eb565b60005460ff1615610be45760405163d93c066560e01b815260040160405180910390fd5b565b600080516020610f1a833981519152610bfe81610acd565b610c0783610c4b565b6001600160a01b038316600090815260046020526040902060019081018054849260ff1990911690836003811115610c4157610c41610e5f565b0217905550505050565b6001600160a01b038116610ad75760405163f8ed173960e01b815260040160405180910390fd5b6001600160a01b0381166000908152600460205260409020548214610cad5760405163793a2f3f60e01b815260048101839052602401610684565b5050565b610cbb8282610838565b610cad5760405163e2517d3f60e01b81526001600160a01b038216600482015260248101839052604401610684565b80356001600160a01b0381168114610d0157600080fd5b919050565b60008060408385031215610d1957600080fd5b82359150610d2960208401610cea565b90509250929050565b600060208284031215610d4457600080fd5b81356001600160e01b031981168114610d5c57600080fd5b9392505050565b600060208284031215610d7557600080fd5b5035919050565b803560048110610d0157600080fd5b600080600060408486031215610da057600080fd5b833567ffffffffffffffff811115610db757600080fd5b8401601f81018613610dc857600080fd5b803567ffffffffffffffff811115610ddf57600080fd5b8660208260051b8401011115610df457600080fd5b602091820194509250610e08908501610d7c565b90509250925092565b600080600060608486031215610e2657600080fd5b83359250610e3660208501610cea565b9150610e0860408501610d7c565b600060208284031215610e5657600080fd5b610d5c82610cea565b634e487b7160e01b600052602160045260246000fd5b8281526040810160048310610e9a57634e487b7160e01b600052602160045260246000fd5b8260208301529392505050565b634e487b7160e01b600052603260045260246000fd5b600060208284031215610ecf57600080fd5b5051919050565b808201808211156103eb57634e487b7160e01b600052601160045260246000fd5b600060208284031215610f0957600080fd5b81518015158114610d5c57600080fdfeaf290d8680820aad922855f39b306097b20e28774d6c1ad35a20325630c3a02ca26469706673582212202e5389d909a43ff31236b1d35b9629fa0828fcda542fa80de65808f0a78a06c164736f6c634300081c0033af290d8680820aad922855f39b306097b20e28774d6c1ad35a20325630c3a02cdf8b4c520ffe197c5343c6f5aec59570151ef9a492f2c624fd45ddde6135ec42a264697066735822122049915bc51c022b0ee4f1a6b1b085ff7bb95c637a3393b56bcdf3c9bdc2b5f22e64736f6c634300081c0033df8b4c520ffe197c5343c6f5aec59570151ef9a492f2c624fd45ddde6135ec42","linkReferences":{}},"methodIdentifiers":{"ADMIN()":"2a0acc6a","DEFAULT_ADMIN_ROLE()":"a217fddf","MANAGER()":"1b2df850","bootcamps(uint256)":"ed069e2d","createBootcamp(uint256,address,uint256)":"01908f72","getRoleAdmin(bytes32)":"248a9ca3","grantARole(bytes32,address)":"ab2a930d","grantRole(bytes32,address)":"2f2ff15d","hasRole(bytes32,address)":"91d14854","renounceRole(bytes32,address)":"36568abe","revokeARole(bytes32,address)":"cef66e60","revokeRole(bytes32,address)":"d547741f","supportsInterface(bytes4)":"01ffc9a7","totalBootcampAmount()":"eb2ab79e"},"id":33}