{"abi":[{"type":"constructor","inputs":[],"stateMutability":"nonpayable"},{"type":"function","name":"ADMIN","inputs":[],"outputs":[{"name":"","type":"bytes32","internalType":"bytes32"}],"stateMutability":"view"},{"type":"function","name":"DEFAULT_ADMIN_ROLE","inputs":[],"outputs":[{"name":"","type":"bytes32","internalType":"bytes32"}],"stateMutability":"view"},{"type":"function","name":"MANAGER","inputs":[],"outputs":[{"name":"","type":"bytes32","internalType":"bytes32"}],"stateMutability":"view"},{"type":"function","name":"bootcamps","inputs":[{"name":"","type":"uint256","internalType":"uint256"}],"outputs":[{"name":"id","type":"uint256","internalType":"uint256"},{"name":"depositAmount","type":"uint256","internalType":"uint256"},{"name":"depositToken","type":"address","internalType":"address"},{"name":"bootcampAddress","type":"address","internalType":"address"}],"stateMutability":"view"},{"type":"function","name":"createBootcamp","inputs":[{"name":"_depositAmount","type":"uint256","internalType":"uint256"},{"name":"_depositToken","type":"address","internalType":"address"},{"name":"_bootcampDuration","type":"uint256","internalType":"uint256"}],"outputs":[],"stateMutability":"nonpayable"},{"type":"function","name":"getBootcamp","inputs":[{"name":"_id","type":"uint256","internalType":"uint256"}],"outputs":[{"name":"","type":"tuple","internalType":"struct BootcampFactory.Bootcamp","components":[{"name":"id","type":"uint256","internalType":"uint256"},{"name":"depositAmount","type":"uint256","internalType":"uint256"},{"name":"depositToken","type":"address","internalType":"address"},{"name":"bootcampAddress","type":"address","internalType":"address"}]}],"stateMutability":"view"},{"type":"function","name":"getRoleAdmin","inputs":[{"name":"role","type":"bytes32","internalType":"bytes32"}],"outputs":[{"name":"","type":"bytes32","internalType":"bytes32"}],"stateMutability":"view"},{"type":"function","name":"grantARole","inputs":[{"name":"_role","type":"bytes32","internalType":"bytes32"},{"name":"_account","type":"address","internalType":"address"}],"outputs":[],"stateMutability":"nonpayable"},{"type":"function","name":"grantRole","inputs":[{"name":"role","type":"bytes32","internalType":"bytes32"},{"name":"account","type":"address","internalType":"address"}],"outputs":[],"stateMutability":"nonpayable"},{"type":"function","name":"hasRole","inputs":[{"name":"role","type":"bytes32","internalType":"bytes32"},{"name":"account","type":"address","internalType":"address"}],"outputs":[{"name":"","type":"bool","internalType":"bool"}],"stateMutability":"view"},{"type":"function","name":"renounceRole","inputs":[{"name":"role","type":"bytes32","internalType":"bytes32"},{"name":"callerConfirmation","type":"address","internalType":"address"}],"outputs":[],"stateMutability":"nonpayable"},{"type":"function","name":"revokeARole","inputs":[{"name":"_role","type":"bytes32","internalType":"bytes32"},{"name":"_account","type":"address","internalType":"address"}],"outputs":[],"stateMutability":"nonpayable"},{"type":"function","name":"revokeRole","inputs":[{"name":"role","type":"bytes32","internalType":"bytes32"},{"name":"account","type":"address","internalType":"address"}],"outputs":[],"stateMutability":"nonpayable"},{"type":"function","name":"supportsInterface","inputs":[{"name":"interfaceId","type":"bytes4","internalType":"bytes4"}],"outputs":[{"name":"","type":"bool","internalType":"bool"}],"stateMutability":"view"},{"type":"function","name":"totalBootcampAmount","inputs":[],"outputs":[{"name":"","type":"uint256","internalType":"uint256"}],"stateMutability":"view"},{"type":"event","name":"BootcampCreated","inputs":[{"name":"bootcampId","type":"uint256","indexed":false,"internalType":"uint256"},{"name":"depositAmount","type":"uint256","indexed":false,"internalType":"uint256"},{"name":"depositToken","type":"address","indexed":false,"internalType":"address"},{"name":"bootcampAddress","type":"address","indexed":false,"internalType":"address"}],"anonymous":false},{"type":"event","name":"RoleAdminChanged","inputs":[{"name":"role","type":"bytes32","indexed":true,"internalType":"bytes32"},{"name":"previousAdminRole","type":"bytes32","indexed":true,"internalType":"bytes32"},{"name":"newAdminRole","type":"bytes32","indexed":true,"internalType":"bytes32"}],"anonymous":false},{"type":"event","name":"RoleGranted","inputs":[{"name":"role","type":"bytes32","indexed":true,"internalType":"bytes32"},{"name":"account","type":"address","indexed":true,"internalType":"address"},{"name":"sender","type":"address","indexed":true,"internalType":"address"}],"anonymous":false},{"type":"event","name":"RoleRevoked","inputs":[{"name":"role","type":"bytes32","indexed":true,"internalType":"bytes32"},{"name":"account","type":"address","indexed":true,"internalType":"address"},{"name":"sender","type":"address","indexed":true,"internalType":"address"}],"anonymous":false},{"type":"error","name":"AccessControlBadConfirmation","inputs":[]},{"type":"error","name":"AccessControlUnauthorizedAccount","inputs":[{"name":"account","type":"address","internalType":"address"},{"name":"neededRole","type":"bytes32","internalType":"bytes32"}]},{"type":"error","name":"BootcampFactory__CanNotGrantRoleToZeroAddress","inputs":[]},{"type":"error","name":"BootcampFactory__CanNotRevokeRoleFromZeroAddress","inputs":[]},{"type":"error","name":"BootcampFactory__DepositTokenCanNotBeZeroAddress","inputs":[]},{"type":"error","name":"BootcampFactory__GrantNonExistentRole","inputs":[]}],"bytecode":{"object":"0x608060405234801561001057600080fd5b506100296000805160206116e283398151915233610067565b506100627faf290d8680820aad922855f39b306097b20e28774d6c1ad35a20325630c3a02c6000805160206116e2833981519152610113565b61015e565b6000828152602081815260408083206001600160a01b038516845290915281205460ff16610109576000838152602081815260408083206001600160a01b03861684529091529020805460ff191660011790556100c13390565b6001600160a01b0316826001600160a01b0316847f2f8788117e7eff1d82e926ec794901d17c78024a50270940304540a733656f0d60405160405180910390a450600161010d565b5060005b92915050565b600082815260208190526040808220600101805490849055905190918391839186917fbd79b86ffe0ab8e8776151514217cd7cacd52c909f66475c3af44e129f0b00ff9190a4505050565b6115758061016d6000396000f3fe608060405234801561001057600080fd5b50600436106100f55760003560e01c806336568abe11610097578063cef66e6011610066578063cef66e60146102a2578063d547741f146102b5578063eb2ab79e146102c8578063ed069e2d146102d157600080fd5b806336568abe1461026157806391d1485414610274578063a217fddf14610287578063ab2a930d1461028f57600080fd5b8063248a9ca3116100d3578063248a9ca31461015a5780632a0acc6a1461017d5780632f2ff15d146101925780633009ecdf146101a557600080fd5b806301908f72146100fa57806301ffc9a71461010f5780631b2df85014610137575b600080fd5b61010d61010836600461082e565b610343565b005b61012261011d366004610864565b6104cb565b60405190151581526020015b60405180910390f35b61014c60008051602061150083398151915281565b60405190815260200161012e565b61014c610168366004610895565b60009081526020819052604090206001015490565b61014c60008051602061152083398151915281565b61010d6101a03660046108ae565b610502565b6102216101b3366004610895565b604080516080808201835260008083526020808401829052838501829052606093840182905294815260028086529084902084519283018552805483526001810154958301959095528401546001600160a01b03908116938201939093526003909301549091169082015290565b604080518251815260208084015190820152828201516001600160a01b03908116928201929092526060928301519091169181019190915260800161012e565b61010d61026f3660046108ae565b61052d565b6101226102823660046108ae565b610565565b61014c600081565b61010d61029d3660046108ae565b61058e565b61010d6102b03660046108ae565b61061e565b61010d6102c33660046108ae565b610695565b61014c60015481565b6103146102df366004610895565b600260208190526000918252604090912080546001820154928201546003909201549092916001600160a01b03908116911684565b6040805194855260208501939093526001600160a01b039182169284019290925216606082015260800161012e565b60008051602061150083398151915261035b816106ba565b6001600160a01b038316610382576040516319ef6c4960e11b815260040160405180910390fd5b60008484338560405161039490610805565b9384526001600160a01b039283166020850152911660408301526060820152608001604051809103906000f0801580156103d2573d6000803e3d6000fd5b506001805491925060006103e5836108da565b9091555050600180546040805160808101825282815260208082018a81526001600160a01b03808b1684860190815288821660608601908152600088815260029586905287902095518655925197850197909755955191830180549287166001600160a01b031993841617905551600390920180549290951691161790925590517f58c106a52975c84b6fcd8b545d32bbec08c04225ebb8d749a42acf6b8198f58e906104bb90839089908990879093845260208401929092526001600160a01b03908116604084015216606082015260800190565b60405180910390a1505050505050565b60006001600160e01b03198216637965db0b60e01b14806104fc57506301ffc9a760e01b6001600160e01b03198316145b92915050565b60008281526020819052604090206001015461051d816106ba565b61052783836106c7565b50505050565b6001600160a01b03811633146105565760405163334bd91960e11b815260040160405180910390fd5b6105608282610759565b505050565b6000918252602082815260408084206001600160a01b0393909316845291905290205460ff1690565b6000805160206115208339815191526105a6816106ba565b6001600160a01b0382166105cd576040516398a384a360e01b815260040160405180910390fd5b6000805160206115208339815191528314806105f6575060008051602061150083398151915283145b156106055761052783836106c7565b6040516350b0122b60e11b815260040160405180910390fd5b600080516020611520833981519152610636816106ba565b6001600160a01b03821661065d576040516353f531e160e01b815260040160405180910390fd5b600080516020611520833981519152831480610686575060008051602061150083398151915283145b15610605576105278383610759565b6000828152602081905260409020600101546106b0816106ba565b6105278383610759565b6106c481336107c4565b50565b60006106d38383610565565b610751576000838152602081815260408083206001600160a01b03861684529091529020805460ff191660011790556107093390565b6001600160a01b0316826001600160a01b0316847f2f8788117e7eff1d82e926ec794901d17c78024a50270940304540a733656f0d60405160405180910390a45060016104fc565b5060006104fc565b60006107658383610565565b15610751576000838152602081815260408083206001600160a01b0386168085529252808320805460ff1916905551339286917ff6391f5c32d9c69d2a47ea670b442974b53935d1edc7fd64eb21e047a839171b9190a45060016104fc565b6107ce8282610565565b6108015760405163e2517d3f60e01b81526001600160a01b03821660048201526024810183905260440160405180910390fd5b5050565b610bfe8061090283390190565b80356001600160a01b038116811461082957600080fd5b919050565b60008060006060848603121561084357600080fd5b8335925061085360208501610812565b929592945050506040919091013590565b60006020828403121561087657600080fd5b81356001600160e01b03198116811461088e57600080fd5b9392505050565b6000602082840312156108a757600080fd5b5035919050565b600080604083850312156108c157600080fd5b823591506108d160208401610812565b90509250929050565b6000600182016108fa57634e487b7160e01b600052601160045260246000fd5b506001019056fe61010060405234801561001157600080fd5b50604051610bfe380380610bfe83398101604081905261003091610145565b6000805460ff1916905560808490526001600160a01b03831660e0524260c05261005d8162015180610189565b60a05261008a7faf290d8680820aad922855f39b306097b20e28774d6c1ad35a20325630c3a02c83610094565b50505050506101ae565b60008281526001602090815260408083206001600160a01b038516845290915281205460ff1661011f5760008381526001602081815260408084206001600160a01b0387168086529252808420805460ff19169093179092559051339286917f2f8788117e7eff1d82e926ec794901d17c78024a50270940304540a733656f0d9190a4506001610123565b5060005b92915050565b80516001600160a01b038116811461014057600080fd5b919050565b6000806000806080858703121561015b57600080fd5b8451935061016b60208601610129565b925061017960408601610129565b6060959095015193969295505050565b808202811582820484141761012357634e487b7160e01b600052601160045260246000fd5b60805160a05160c05160e0516109fb6102036000396000818161027e015281816103fd0152818161053701526106a801526000610257015260006102020152600081816101d001526105a801526109fb6000f3fe608060405234801561001057600080fd5b506004361061010a5760003560e01c80635cd70513116100a2578063a63f137a11610071578063a63f137a14610252578063c89039c514610279578063d547741f146102b8578063e1254fba146102cb578063fc7e286d146102f457600080fd5b80635cd70513146101fd5780636e553f651461022457806391d1485414610237578063a217fddf1461024a57600080fd5b80632f2ff15d116100de5780632f2ff15d146101a557806336568abe146101b8578063419759f5146101cb5780635c975abb146101f257600080fd5b8062f714ce1461010f57806301ffc9a7146101245780631b2df8501461014c578063248a9ca314610181575b600080fd5b61012261011d3660046108d8565b610333565b005b610137610132366004610904565b610471565b60405190151581526020015b60405180910390f35b6101737faf290d8680820aad922855f39b306097b20e28774d6c1ad35a20325630c3a02c81565b604051908152602001610143565b61017361018f366004610935565b6000908152600160208190526040909120015490565b6101226101b33660046108d8565b6104a8565b6101226101c63660046108d8565b6104d4565b6101737f000000000000000000000000000000000000000000000000000000000000000081565b60005460ff16610137565b6101737f000000000000000000000000000000000000000000000000000000000000000081565b6101226102323660046108d8565b610507565b6101376102453660046108d8565b610715565b610173600081565b6101737f000000000000000000000000000000000000000000000000000000000000000081565b6102a07f000000000000000000000000000000000000000000000000000000000000000081565b6040516001600160a01b039091168152602001610143565b6101226102c63660046108d8565b610740565b6101736102d936600461094e565b6001600160a01b031660009081526002602052604090205490565b61031e61030236600461094e565b6002602052600090815260409020805460019091015460ff1682565b60408051928352901515602083015201610143565b61033b610766565b8161035b826001600160a01b031660009081526002602052604090205490565b146103815760405163793a2f3f60e01b8152600481018390526024015b60405180910390fd5b604080516001600160a01b0383168152602081018490527f4482101800a5c2e900f4156e57e05e19ffd7b366cde579553d723fd3abb2180e910160405180910390a16001600160a01b03818116600081815260026020526040808220919091555163a9059cbb60e01b81526004810191909152602481018490527f00000000000000000000000000000000000000000000000000000000000000009091169063a9059cbb906044016020604051808303816000875af1158015610448573d6000803e3d6000fd5b505050506040513d601f19601f8201168201806040525081019061046c9190610969565b505050565b60006001600160e01b03198216637965db0b60e01b14806104a257506301ffc9a760e01b6001600160e01b03198316145b92915050565b600082815260016020819052604090912001546104c48161078c565b6104ce8383610799565b50505050565b6001600160a01b03811633146104fd5760405163334bd91960e11b815260040160405180910390fd5b61046c8282610812565b61050f610766565b604051636eb1769f60e11b81526001600160a01b0382811660048301523060248301526000917f00000000000000000000000000000000000000000000000000000000000000009091169063dd62ed3e90604401602060405180830381865afa158015610580573d6000803e3d6000fd5b505050506040513d601f19601f820116820180604052508101906105a4919061098b565b90507f000000000000000000000000000000000000000000000000000000000000000083146105e957604051631f49b00160e01b815260048101849052602401610378565b8281101561060d57604051631c59319f60e11b815260048101829052602401610378565b604080516001600160a01b0384168152602081018590527f5c5c52faf0379d6438710fab5583f7bf4001bbc1c48b855499e7f9a7183e0fec910160405180910390a16001600160a01b038216600090815260026020526040812080548592906106779084906109a4565b90915550506040516323b872dd60e01b81526001600160a01b038381166004830152306024830152604482018590527f000000000000000000000000000000000000000000000000000000000000000016906323b872dd906064016020604051808303816000875af11580156106f1573d6000803e3d6000fd5b505050506040513d601f19601f820116820180604052508101906104ce9190610969565b60009182526001602090815260408084206001600160a01b0393909316845291905290205460ff1690565b6000828152600160208190526040909120015461075c8161078c565b6104ce8383610812565b60005460ff161561078a5760405163d93c066560e01b815260040160405180910390fd5b565b610796813361087f565b50565b60006107a58383610715565b61080a5760008381526001602081815260408084206001600160a01b0387168086529252808420805460ff19169093179092559051339286917f2f8788117e7eff1d82e926ec794901d17c78024a50270940304540a733656f0d9190a45060016104a2565b5060006104a2565b600061081e8383610715565b1561080a5760008381526001602090815260408083206001600160a01b0386168085529252808320805460ff1916905551339286917ff6391f5c32d9c69d2a47ea670b442974b53935d1edc7fd64eb21e047a839171b9190a45060016104a2565b6108898282610715565b6108b85760405163e2517d3f60e01b81526001600160a01b038216600482015260248101839052604401610378565b5050565b80356001600160a01b03811681146108d357600080fd5b919050565b600080604083850312156108eb57600080fd5b823591506108fb602084016108bc565b90509250929050565b60006020828403121561091657600080fd5b81356001600160e01b03198116811461092e57600080fd5b9392505050565b60006020828403121561094757600080fd5b5035919050565b60006020828403121561096057600080fd5b61092e826108bc565b60006020828403121561097b57600080fd5b8151801515811461092e57600080fd5b60006020828403121561099d57600080fd5b5051919050565b808201808211156104a257634e487b7160e01b600052601160045260246000fdfea26469706673582212200835cf0ad22096135974b5a005f3eb296f1e52beb0c55f164ff31ce245caeb3164736f6c634300081c0033af290d8680820aad922855f39b306097b20e28774d6c1ad35a20325630c3a02cdf8b4c520ffe197c5343c6f5aec59570151ef9a492f2c624fd45ddde6135ec42a26469706673582212204b92517b0d27de52fe4f93aa635320c0873fc243fb516089c30f3a0eeb9331d064736f6c634300081c0033df8b4c520ffe197c5343c6f5aec59570151ef9a492f2c624fd45ddde6135ec42","linkReferences":{}},"methodIdentifiers":{"ADMIN()":"2a0acc6a","DEFAULT_ADMIN_ROLE()":"a217fddf","MANAGER()":"1b2df850","bootcamps(uint256)":"ed069e2d","createBootcamp(uint256,address,uint256)":"01908f72","getBootcamp(uint256)":"3009ecdf","getRoleAdmin(bytes32)":"248a9ca3","grantARole(bytes32,address)":"ab2a930d","grantRole(bytes32,address)":"2f2ff15d","hasRole(bytes32,address)":"91d14854","renounceRole(bytes32,address)":"36568abe","revokeARole(bytes32,address)":"cef66e60","revokeRole(bytes32,address)":"d547741f","supportsInterface(bytes4)":"01ffc9a7","totalBootcampAmount()":"eb2ab79e"},"id":35}