{"abi":[{"type":"constructor","inputs":[],"stateMutability":"nonpayable"},{"type":"function","name":"ADMIN","inputs":[],"outputs":[{"name":"","type":"bytes32","internalType":"bytes32"}],"stateMutability":"view"},{"type":"function","name":"DEFAULT_ADMIN_ROLE","inputs":[],"outputs":[{"name":"","type":"bytes32","internalType":"bytes32"}],"stateMutability":"view"},{"type":"function","name":"MANAGER","inputs":[],"outputs":[{"name":"","type":"bytes32","internalType":"bytes32"}],"stateMutability":"view"},{"type":"function","name":"bootcamps","inputs":[{"name":"","type":"uint256","internalType":"uint256"}],"outputs":[{"name":"id","type":"uint256","internalType":"uint256"},{"name":"depositAmount","type":"uint256","internalType":"uint256"},{"name":"depositToken","type":"address","internalType":"address"},{"name":"bootcampAddress","type":"address","internalType":"address"}],"stateMutability":"view"},{"type":"function","name":"createBootcamp","inputs":[{"name":"_depositAmount","type":"uint256","internalType":"uint256"},{"name":"_depositToken","type":"address","internalType":"address"},{"name":"_bootcampDuration","type":"uint256","internalType":"uint256"},{"name":"_bootcampStartTime","type":"uint256","internalType":"uint256"}],"outputs":[],"stateMutability":"nonpayable"},{"type":"function","name":"getRoleAdmin","inputs":[{"name":"role","type":"bytes32","internalType":"bytes32"}],"outputs":[{"name":"","type":"bytes32","internalType":"bytes32"}],"stateMutability":"view"},{"type":"function","name":"grantARole","inputs":[{"name":"_role","type":"bytes32","internalType":"bytes32"},{"name":"_account","type":"address","internalType":"address"}],"outputs":[],"stateMutability":"nonpayable"},{"type":"function","name":"grantRole","inputs":[{"name":"role","type":"bytes32","internalType":"bytes32"},{"name":"account","type":"address","internalType":"address"}],"outputs":[],"stateMutability":"nonpayable"},{"type":"function","name":"hasRole","inputs":[{"name":"role","type":"bytes32","internalType":"bytes32"},{"name":"account","type":"address","internalType":"address"}],"outputs":[{"name":"","type":"bool","internalType":"bool"}],"stateMutability":"view"},{"type":"function","name":"renounceRole","inputs":[{"name":"role","type":"bytes32","internalType":"bytes32"},{"name":"callerConfirmation","type":"address","internalType":"address"}],"outputs":[],"stateMutability":"nonpayable"},{"type":"function","name":"revokeARole","inputs":[{"name":"_role","type":"bytes32","internalType":"bytes32"},{"name":"_account","type":"address","internalType":"address"}],"outputs":[],"stateMutability":"nonpayable"},{"type":"function","name":"revokeRole","inputs":[{"name":"role","type":"bytes32","internalType":"bytes32"},{"name":"account","type":"address","internalType":"address"}],"outputs":[],"stateMutability":"nonpayable"},{"type":"function","name":"supportsInterface","inputs":[{"name":"interfaceId","type":"bytes4","internalType":"bytes4"}],"outputs":[{"name":"","type":"bool","internalType":"bool"}],"stateMutability":"view"},{"type":"function","name":"totalBootcampAmount","inputs":[],"outputs":[{"name":"","type":"uint256","internalType":"uint256"}],"stateMutability":"view"},{"type":"event","name":"BootcampCreated","inputs":[{"name":"bootcampId","type":"uint256","indexed":true,"internalType":"uint256"},{"name":"bootcampAddress","type":"address","indexed":true,"internalType":"address"}],"anonymous":false},{"type":"event","name":"RoleAdminChanged","inputs":[{"name":"role","type":"bytes32","indexed":true,"internalType":"bytes32"},{"name":"previousAdminRole","type":"bytes32","indexed":true,"internalType":"bytes32"},{"name":"newAdminRole","type":"bytes32","indexed":true,"internalType":"bytes32"}],"anonymous":false},{"type":"event","name":"RoleGranted","inputs":[{"name":"role","type":"bytes32","indexed":true,"internalType":"bytes32"},{"name":"account","type":"address","indexed":true,"internalType":"address"},{"name":"sender","type":"address","indexed":true,"internalType":"address"}],"anonymous":false},{"type":"event","name":"RoleRevoked","inputs":[{"name":"role","type":"bytes32","indexed":true,"internalType":"bytes32"},{"name":"account","type":"address","indexed":true,"internalType":"address"},{"name":"sender","type":"address","indexed":true,"internalType":"address"}],"anonymous":false},{"type":"error","name":"AccessControlBadConfirmation","inputs":[]},{"type":"error","name":"AccessControlUnauthorizedAccount","inputs":[{"name":"account","type":"address","internalType":"address"},{"name":"neededRole","type":"bytes32","internalType":"bytes32"}]},{"type":"error","name":"BootcampFactory__CanNotGrantRoleToZeroAddress","inputs":[]},{"type":"error","name":"BootcampFactory__CanNotRevokeRoleFromZeroAddress","inputs":[]},{"type":"error","name":"BootcampFactory__DepositTokenCanNotBeZeroAddress","inputs":[]},{"type":"error","name":"BootcampFactory__GrantNonExistentRole","inputs":[]},{"type":"error","name":"BootcampFactory__InvalidBootcampStartTime","inputs":[]}],"bytecode":{"object":"0x608060405234801561001057600080fd5b50610029600080516020611b9f83398151915233610067565b506100627faf290d8680820aad922855f39b306097b20e28774d6c1ad35a20325630c3a02c600080516020611b9f833981519152610113565b61015e565b6000828152602081815260408083206001600160a01b038516845290915281205460ff16610109576000838152602081815260408083206001600160a01b03861684529091529020805460ff191660011790556100c13390565b6001600160a01b0316826001600160a01b0316847f2f8788117e7eff1d82e926ec794901d17c78024a50270940304540a733656f0d60405160405180910390a450600161010d565b5060005b92915050565b600082815260208190526040808220600101805490849055905190918391839186917fbd79b86ffe0ab8e8776151514217cd7cacd52c909f66475c3af44e129f0b00ff9190a4505050565b611a328061016d6000396000f3fe608060405234801561001057600080fd5b50600436106100ea5760003560e01c8063a217fddf1161008c578063cef66e6011610066578063cef66e60146101db578063d547741f146101ee578063eb2ab79e14610201578063ed069e2d1461020a57600080fd5b8063a217fddf146101ad578063ab2a930d146101b5578063adf60765146101c857600080fd5b80632a0acc6a116100c85780632a0acc6a1461015d5780632f2ff15d1461017257806336568abe1461018757806391d148541461019a57600080fd5b806301ffc9a7146100ef5780631b2df85014610117578063248a9ca31461013a575b600080fd5b6101026100fd366004610744565b61027c565b60405190151581526020015b60405180910390f35b61012c6000805160206119bd83398151915281565b60405190815260200161010e565b61012c610148366004610775565b60009081526020819052604090206001015490565b61012c6000805160206119dd83398151915281565b6101856101803660046107aa565b6102b3565b005b6101856101953660046107aa565b6102de565b6101026101a83660046107aa565b610316565b61012c600081565b6101856101c33660046107aa565b61033f565b6101856101d63660046107d6565b6103cf565b6101856101e93660046107aa565b610550565b6101856101fc3660046107aa565b6105c7565b61012c60015481565b61024d610218366004610775565b600260208190526000918252604090912080546001820154928201546003909201549092916001600160a01b03908116911684565b6040805194855260208501939093526001600160a01b039182169284019290925216606082015260800161010e565b60006001600160e01b03198216637965db0b60e01b14806102ad57506301ffc9a760e01b6001600160e01b03198316145b92915050565b6000828152602081905260409020600101546102ce816105ec565b6102d883836105f9565b50505050565b6001600160a01b03811633146103075760405163334bd91960e11b815260040160405180910390fd5b610311828261068b565b505050565b6000918252602082815260408084206001600160a01b0393909316845291905290205460ff1690565b6000805160206119dd833981519152610357816105ec565b6001600160a01b03821661037e576040516398a384a360e01b815260040160405180910390fd5b6000805160206119dd8339815191528314806103a757506000805160206119bd83398151915283145b156103b6576102d883836105f9565b6040516350b0122b60e11b815260040160405180910390fd5b6000805160206119bd8339815191526103e7816105ec565b6001600160a01b03841661040e576040516319ef6c4960e11b815260040160405180910390fd5b42821161042e57604051631b07d99f60e11b815260040160405180910390fd5b6000858533868660405161044190610737565b9485526001600160a01b0393841660208601529290911660408401526060830152608082015260a001604051809103906000f080158015610486573d6000803e3d6000fd5b5060018054919250600061049983610811565b9091555050600180546040805160808101825282815260208082018b81526001600160a01b03808c1684860190815288821660608601818152600089815260029687905288812097518855945199870199909955905193850180549483166001600160a01b03199586161790559651600390940180549490911693909216929092179055905191929183917fcf5b09c7ea80d2340fffa685cc78c064503c74485ab06331bb00a6831721aa0a91a350505050505050565b6000805160206119dd833981519152610568816105ec565b6001600160a01b03821661058f576040516353f531e160e01b815260040160405180910390fd5b6000805160206119dd8339815191528314806105b857506000805160206119bd83398151915283145b156103b6576102d8838361068b565b6000828152602081905260409020600101546105e2816105ec565b6102d8838361068b565b6105f681336106f6565b50565b60006106058383610316565b610683576000838152602081815260408083206001600160a01b03861684529091529020805460ff1916600117905561063b3390565b6001600160a01b0316826001600160a01b0316847f2f8788117e7eff1d82e926ec794901d17c78024a50270940304540a733656f0d60405160405180910390a45060016102ad565b5060006102ad565b60006106978383610316565b15610683576000838152602081815260408083206001600160a01b0386168085529252808320805460ff1916905551339286917ff6391f5c32d9c69d2a47ea670b442974b53935d1edc7fd64eb21e047a839171b9190a45060016102ad565b6107008282610316565b6107335760405163e2517d3f60e01b81526001600160a01b03821660048201526024810183905260440160405180910390fd5b5050565b6111848061083983390190565b60006020828403121561075657600080fd5b81356001600160e01b03198116811461076e57600080fd5b9392505050565b60006020828403121561078757600080fd5b5035919050565b80356001600160a01b03811681146107a557600080fd5b919050565b600080604083850312156107bd57600080fd5b823591506107cd6020840161078e565b90509250929050565b600080600080608085870312156107ec57600080fd5b843593506107fc6020860161078e565b93969395505050506040820135916060013590565b60006001820161083157634e487b7160e01b600052601160045260246000fd5b506001019056fe61010060405234801561001157600080fd5b5060405161118438038061118483398101604081905261003091610147565b6000805460ff1916905560808590526001600160a01b03841660e05260c081905261005e8262015180610196565b60a05261008b7faf290d8680820aad922855f39b306097b20e28774d6c1ad35a20325630c3a02c84610096565b5050505050506101bb565b60008281526001602090815260408083206001600160a01b038516845290915281205460ff166101215760008381526001602081815260408084206001600160a01b0387168086529252808420805460ff19169093179092559051339286917f2f8788117e7eff1d82e926ec794901d17c78024a50270940304540a733656f0d9190a4506001610125565b5060005b92915050565b80516001600160a01b038116811461014257600080fd5b919050565b600080600080600060a0868803121561015f57600080fd5b8551945061016f6020870161012b565b935061017d6040870161012b565b6060870151608090970151959894975095949392505050565b808202811582820484141761012557634e487b7160e01b600052601160045260246000fd5b60805160a05160c05160e051610f6661021e6000396000818161031c015281816105c7015281816107750152610a360152600081816102f501526106380152600061028501526000818161024001528181610679015261093d0152610f666000f3fe608060405234801561001057600080fd5b506004361061014c5760003560e01c80635c975abb116100c3578063a217fddf1161007c578063a217fddf146102e8578063a63f137a146102f0578063c89039c514610317578063d547741f1461033e578063db2e21bc14610351578063fc7e286d1461035957600080fd5b80635c975abb146102755780635cd70513146102805780636c0304c9146102a75780636e553f65146102af57806377a45f6f146102c257806391d14854146102d557600080fd5b8063248a9ca311610115578063248a9ca3146101e95780632f2ff15d1461020d57806336568abe1461022057806341819d2714610233578063419759f51461023b5780635380b5651461026257600080fd5b8062f714ce1461015157806301ffc9a7146101665780631a26af7a1461018e5780631b2df8501461019b5780631c2161c1146101be575b600080fd5b61016461015f366004610d1e565b610391565b005b610179610174366004610d4a565b6103ec565b60405190151581526020015b60405180910390f35b6003546101799060ff1681565b6101b0600080516020610f1183398151915281565b604051908152602001610185565b6101d16101cc366004610d7b565b610423565b6040516001600160a01b039091168152602001610185565b6101b06101f7366004610d7b565b6000908152600160208190526040909120015490565b61016461021b366004610d1e565b61044d565b61016461022e366004610d1e565b610473565b6101646104ab565b6101b07f000000000000000000000000000000000000000000000000000000000000000081565b610164610270366004610da3565b6104d8565b60005460ff16610179565b6101b07f000000000000000000000000000000000000000000000000000000000000000081565b61016461055e565b6101646102bd366004610d1e565b61058e565b6101646102d0366004610e29565b61082d565b6101796102e3366004610d1e565b610850565b6101b0600081565b6101b07f000000000000000000000000000000000000000000000000000000000000000081565b6101d17f000000000000000000000000000000000000000000000000000000000000000081565b61016461034c366004610d1e565b61087b565b6101646108a1565b610383610367366004610e5c565b6004602052600090815260409020805460019091015460ff1682565b604051610185929190610e8d565b33600090815260046020526040902060019081015460ff16818160038111156103bc576103bc610e77565b146103da576040516370d750d160e11b815260040160405180910390fd5b6103e6848460026109a0565b50505050565b60006001600160e01b03198216637965db0b60e01b148061041d57506301ffc9a760e01b6001600160e01b03198316145b92915050565b6002818154811061043357600080fd5b6000918252602090912001546001600160a01b0316905081565b6000828152600160208190526040909120015461046981610ae5565b6103e68383610af2565b6001600160a01b038116331461049c5760405163334bd91960e11b815260040160405180910390fd5b6104a68282610b6b565b505050565b6104b3610bd8565b600080516020610f118339815191526104cb81610ae5565b506003805460ff19169055565b600080516020610f118339815191526104f081610ae5565b826000819003610513576040516372d9e5c360e01b815260040160405180910390fd5b60005b818110156105565761054e86868381811061053357610533610ebf565b90506020020160208101906105489190610e5c565b85610bfe565b600101610516565b505050505050565b610566610bd8565b600080516020610f1183398151915261057e81610ae5565b506003805460ff19166001179055565b610596610bd8565b61059f81610c63565b604051636eb1769f60e11b81526001600160a01b0382811660048301523060248301526000917f00000000000000000000000000000000000000000000000000000000000000009091169063dd62ed3e90604401602060405180830381865afa158015610610573d6000803e3d6000fd5b505050506040513d601f19601f820116820180604052508101906106349190610ed5565b90507f000000000000000000000000000000000000000000000000000000000000000042111561067757604051633eec048360e21b815260040160405180910390fd5b7f000000000000000000000000000000000000000000000000000000000000000083146106bf57604051631f49b00160e01b8152600481018490526024015b60405180910390fd5b828110156106e357604051631c59319f60e11b8152600481018290526024016106b6565b6001600160a01b0382811660008181526004602081905260408083206001808201805460ff1916905581548a019091556002805491820181559093527f405787fa12a823e0f2b7631cc41b3ba8828b3321ca811111fa75cd3aa3bb5ace90920180546001600160a01b0319168417905590516323b872dd60e01b815290810191909152306024820152604481018590527f0000000000000000000000000000000000000000000000000000000000000000909116906323b872dd906064016020604051808303816000875af11580156107c0573d6000803e3d6000fd5b505050506040513d601f19601f820116820180604052508101906107e49190610eee565b50604080516001600160a01b0384168152602081018590527f5c5c52faf0379d6438710fab5583f7bf4001bbc1c48b855499e7f9a7183e0fec91015b60405180910390a1505050565b600080516020610f1183398151915261084581610ae5565b6103e68484846109a0565b60009182526001602090815260408084206001600160a01b0393909316845291905290205460ff1690565b6000828152600160208190526040909120015461089781610ae5565b6103e68383610b6b565b600080516020610f118339815191526108b981610ae5565b60035460ff166108dc57604051631e21ef5760e21b815260040160405180910390fd5b6000600280548060200260200160405190810160405280929190818152602001828054801561093457602002820191906000526020600020905b81546001600160a01b03168152600190910190602001808311610916575b505083519394507f0000000000000000000000000000000000000000000000000000000000000000925060009150505b82811015610999576109918285838151811061098257610982610ebf565b602002602001015160026109a0565b600101610964565b5050505050565b6109a8610bd8565b6109b182610c63565b6109bb8383610c8a565b6001600160a01b038216600090815260046020526040902060019081018054839260ff19909116908360038111156109f5576109f5610e77565b02179055506001600160a01b03828116600081815260046020819052604080832092909255905163a9059cbb60e01b815290810191909152602481018590527f00000000000000000000000000000000000000000000000000000000000000009091169063a9059cbb906044016020604051808303816000875af1158015610a81573d6000803e3d6000fd5b505050506040513d601f19601f82011682018060405250810190610aa59190610eee565b50604080516001600160a01b0384168152602081018590527f4482101800a5c2e900f4156e57e05e19ffd7b366cde579553d723fd3abb2180e9101610820565b610aef8133610cc9565b50565b6000610afe8383610850565b610b635760008381526001602081815260408084206001600160a01b0387168086529252808420805460ff19169093179092559051339286917f2f8788117e7eff1d82e926ec794901d17c78024a50270940304540a733656f0d9190a450600161041d565b50600061041d565b6000610b778383610850565b15610b635760008381526001602090815260408083206001600160a01b0386168085529252808320805460ff1916905551339286917ff6391f5c32d9c69d2a47ea670b442974b53935d1edc7fd64eb21e047a839171b9190a450600161041d565b60005460ff1615610bfc5760405163d93c066560e01b815260040160405180910390fd5b565b600080516020610f11833981519152610c1681610ae5565b610c1f83610c63565b6001600160a01b038316600090815260046020526040902060019081018054849260ff1990911690836003811115610c5957610c59610e77565b0217905550505050565b6001600160a01b038116610aef5760405163f8ed173960e01b815260040160405180910390fd5b6001600160a01b0381166000908152600460205260409020548214610cc55760405163793a2f3f60e01b8152600481018390526024016106b6565b5050565b610cd38282610850565b610cc55760405163e2517d3f60e01b81526001600160a01b0382166004820152602481018390526044016106b6565b80356001600160a01b0381168114610d1957600080fd5b919050565b60008060408385031215610d3157600080fd5b82359150610d4160208401610d02565b90509250929050565b600060208284031215610d5c57600080fd5b81356001600160e01b031981168114610d7457600080fd5b9392505050565b600060208284031215610d8d57600080fd5b5035919050565b803560048110610d1957600080fd5b600080600060408486031215610db857600080fd5b833567ffffffffffffffff811115610dcf57600080fd5b8401601f81018613610de057600080fd5b803567ffffffffffffffff811115610df757600080fd5b8660208260051b8401011115610e0c57600080fd5b602091820194509250610e20908501610d94565b90509250925092565b600080600060608486031215610e3e57600080fd5b83359250610e4e60208501610d02565b9150610e2060408501610d94565b600060208284031215610e6e57600080fd5b610d7482610d02565b634e487b7160e01b600052602160045260246000fd5b8281526040810160048310610eb257634e487b7160e01b600052602160045260246000fd5b8260208301529392505050565b634e487b7160e01b600052603260045260246000fd5b600060208284031215610ee757600080fd5b5051919050565b600060208284031215610f0057600080fd5b81518015158114610d7457600080fdfeaf290d8680820aad922855f39b306097b20e28774d6c1ad35a20325630c3a02ca26469706673582212204cfc8f6d564c6a1dc64a2a3f41dcfa8fec01d8ae64c23be7ca047ad7d06f5f5164736f6c634300081c0033af290d8680820aad922855f39b306097b20e28774d6c1ad35a20325630c3a02cdf8b4c520ffe197c5343c6f5aec59570151ef9a492f2c624fd45ddde6135ec42a26469706673582212205a876be95b8fc0cb8341e9f0d1ab7bb140a0b8bde48f707006dca3700957216864736f6c634300081c0033df8b4c520ffe197c5343c6f5aec59570151ef9a492f2c624fd45ddde6135ec42","linkReferences":{}},"methodIdentifiers":{"ADMIN()":"2a0acc6a","DEFAULT_ADMIN_ROLE()":"a217fddf","MANAGER()":"1b2df850","bootcamps(uint256)":"ed069e2d","createBootcamp(uint256,address,uint256,uint256)":"adf60765","getRoleAdmin(bytes32)":"248a9ca3","grantARole(bytes32,address)":"ab2a930d","grantRole(bytes32,address)":"2f2ff15d","hasRole(bytes32,address)":"91d14854","renounceRole(bytes32,address)":"36568abe","revokeARole(bytes32,address)":"cef66e60","revokeRole(bytes32,address)":"d547741f","supportsInterface(bytes4)":"01ffc9a7","totalBootcampAmount()":"eb2ab79e"},"id":35}