{"abi":[{"type":"constructor","inputs":[{"name":"_depositAmount","type":"uint256","internalType":"uint256"},{"name":"_depositToken","type":"address","internalType":"address"},{"name":"_manager","type":"address","internalType":"address"},{"name":"_bootcampStartTime","type":"uint256","internalType":"uint256"},{"name":"_withdrawDuration","type":"uint256","internalType":"uint256"},{"name":"_factory","type":"address","internalType":"address"},{"name":"_bootcampName","type":"string","internalType":"string"}],"stateMutability":"nonpayable"},{"type":"function","name":"DEFAULT_ADMIN_ROLE","inputs":[],"outputs":[{"name":"","type":"bytes32","internalType":"bytes32"}],"stateMutability":"view"},{"type":"function","name":"MANAGER","inputs":[],"outputs":[{"name":"","type":"bytes32","internalType":"bytes32"}],"stateMutability":"view"},{"type":"function","name":"bootcampFinishTime","inputs":[],"outputs":[{"name":"","type":"uint256","internalType":"uint256"}],"stateMutability":"view"},{"type":"function","name":"bootcampName","inputs":[],"outputs":[{"name":"","type":"string","internalType":"string"}],"stateMutability":"view"},{"type":"function","name":"bootcampStartTime","inputs":[],"outputs":[{"name":"","type":"uint256","internalType":"uint256"}],"stateMutability":"view"},{"type":"function","name":"deposit","inputs":[{"name":"_amount","type":"uint256","internalType":"uint256"},{"name":"_depositor","type":"address","internalType":"address"}],"outputs":[],"stateMutability":"nonpayable"},{"type":"function","name":"depositAmount","inputs":[],"outputs":[{"name":"","type":"uint256","internalType":"uint256"}],"stateMutability":"view"},{"type":"function","name":"depositToken","inputs":[],"outputs":[{"name":"","type":"address","internalType":"contract IERC20"}],"stateMutability":"view"},{"type":"function","name":"deposits","inputs":[{"name":"","type":"address","internalType":"address"}],"outputs":[{"name":"depositedAmount","type":"uint256","internalType":"uint256"},{"name":"depositDonation","type":"bool","internalType":"bool"},{"name":"status","type":"uint8","internalType":"enum DepositHandler.Status"}],"stateMutability":"view"},{"type":"function","name":"donate","inputs":[],"outputs":[],"stateMutability":"nonpayable"},{"type":"function","name":"emergencyWithdraw","inputs":[],"outputs":[],"stateMutability":"nonpayable"},{"type":"function","name":"emergencyWithdrawParticipants","inputs":[{"name":"","type":"uint256","internalType":"uint256"}],"outputs":[{"name":"","type":"address","internalType":"address"}],"stateMutability":"view"},{"type":"function","name":"exceptionalWithdraw","inputs":[{"name":"_amount","type":"uint256","internalType":"uint256"},{"name":"_participant","type":"address","internalType":"address"},{"name":"_status","type":"uint8","internalType":"enum DepositHandler.Status"}],"outputs":[],"stateMutability":"nonpayable"},{"type":"function","name":"factory","inputs":[],"outputs":[{"name":"","type":"address","internalType":"address"}],"stateMutability":"view"},{"type":"function","name":"getRoleAdmin","inputs":[{"name":"role","type":"bytes32","internalType":"bytes32"}],"outputs":[{"name":"","type":"bytes32","internalType":"bytes32"}],"stateMutability":"view"},{"type":"function","name":"grantRole","inputs":[{"name":"role","type":"bytes32","internalType":"bytes32"},{"name":"account","type":"address","internalType":"address"}],"outputs":[],"stateMutability":"nonpayable"},{"type":"function","name":"hasRole","inputs":[{"name":"role","type":"bytes32","internalType":"bytes32"},{"name":"account","type":"address","internalType":"address"}],"outputs":[{"name":"","type":"bool","internalType":"bool"}],"stateMutability":"view"},{"type":"function","name":"isParticipant","inputs":[{"name":"","type":"address","internalType":"address"}],"outputs":[{"name":"","type":"bool","internalType":"bool"}],"stateMutability":"view"},{"type":"function","name":"pause","inputs":[],"outputs":[],"stateMutability":"nonpayable"},{"type":"function","name":"paused","inputs":[],"outputs":[{"name":"","type":"bool","internalType":"bool"}],"stateMutability":"view"},{"type":"function","name":"renounceRole","inputs":[{"name":"role","type":"bytes32","internalType":"bytes32"},{"name":"callerConfirmation","type":"address","internalType":"address"}],"outputs":[],"stateMutability":"nonpayable"},{"type":"function","name":"revokeRole","inputs":[{"name":"role","type":"bytes32","internalType":"bytes32"},{"name":"account","type":"address","internalType":"address"}],"outputs":[],"stateMutability":"nonpayable"},{"type":"function","name":"supportsInterface","inputs":[{"name":"interfaceId","type":"bytes4","internalType":"bytes4"}],"outputs":[{"name":"","type":"bool","internalType":"bool"}],"stateMutability":"view"},{"type":"function","name":"unpause","inputs":[],"outputs":[],"stateMutability":"nonpayable"},{"type":"function","name":"updateStatusBatch","inputs":[{"name":"_participants","type":"address[]","internalType":"address[]"},{"name":"_status","type":"uint8","internalType":"enum DepositHandler.Status"}],"outputs":[],"stateMutability":"nonpayable"},{"type":"function","name":"withdraw","inputs":[{"name":"_amount","type":"uint256","internalType":"uint256"},{"name":"_depositor","type":"address","internalType":"address"}],"outputs":[],"stateMutability":"nonpayable"},{"type":"function","name":"withdrawAdmin","inputs":[{"name":"_admin","type":"address","internalType":"address"},{"name":"_amount","type":"uint256","internalType":"uint256"}],"outputs":[{"name":"","type":"uint256","internalType":"uint256"}],"stateMutability":"nonpayable"},{"type":"function","name":"withdrawDuration","inputs":[],"outputs":[{"name":"","type":"uint256","internalType":"uint256"}],"stateMutability":"view"},{"type":"event","name":"DepositDone","inputs":[{"name":"depositor","type":"address","indexed":false,"internalType":"address"},{"name":"depositAmount","type":"uint256","indexed":false,"internalType":"uint256"}],"anonymous":false},{"type":"event","name":"DepositWithdrawn","inputs":[{"name":"depositor","type":"address","indexed":false,"internalType":"address"},{"name":"withdrawAmount","type":"uint256","indexed":false,"internalType":"uint256"}],"anonymous":false},{"type":"event","name":"Paused","inputs":[{"name":"account","type":"address","indexed":false,"internalType":"address"}],"anonymous":false},{"type":"event","name":"RoleAdminChanged","inputs":[{"name":"role","type":"bytes32","indexed":true,"internalType":"bytes32"},{"name":"previousAdminRole","type":"bytes32","indexed":true,"internalType":"bytes32"},{"name":"newAdminRole","type":"bytes32","indexed":true,"internalType":"bytes32"}],"anonymous":false},{"type":"event","name":"RoleGranted","inputs":[{"name":"role","type":"bytes32","indexed":true,"internalType":"bytes32"},{"name":"account","type":"address","indexed":true,"internalType":"address"},{"name":"sender","type":"address","indexed":true,"internalType":"address"}],"anonymous":false},{"type":"event","name":"RoleRevoked","inputs":[{"name":"role","type":"bytes32","indexed":true,"internalType":"bytes32"},{"name":"account","type":"address","indexed":true,"internalType":"address"},{"name":"sender","type":"address","indexed":true,"internalType":"address"}],"anonymous":false},{"type":"event","name":"Unpaused","inputs":[{"name":"account","type":"address","indexed":false,"internalType":"address"}],"anonymous":false},{"type":"error","name":"AccessControlBadConfirmation","inputs":[]},{"type":"error","name":"AccessControlUnauthorizedAccount","inputs":[{"name":"account","type":"address","internalType":"address"},{"name":"neededRole","type":"bytes32","internalType":"bytes32"}]},{"type":"error","name":"DepositHandler__ApprovedAmountLessThanDeposit","inputs":[{"name":"_approvedAmount","type":"uint256","internalType":"uint256"}]},{"type":"error","name":"DepositHandler__BootcampIsNotYetFinished","inputs":[]},{"type":"error","name":"DepositHandler__CallerNotAFactoryContract","inputs":[]},{"type":"error","name":"DepositHandler__CallerNotParticipant","inputs":[]},{"type":"error","name":"DepositHandler__DepositingStageAlreadyClosed","inputs":[]},{"type":"error","name":"DepositHandler__IncorrectAmountForWithdrawal","inputs":[{"name":"_withdrawAmount","type":"uint256","internalType":"uint256"}]},{"type":"error","name":"DepositHandler__IncorrectDepositedAmount","inputs":[{"name":"_actualAmount","type":"uint256","internalType":"uint256"}]},{"type":"error","name":"DepositHandler__NotAllowedActionWithYourStatus","inputs":[]},{"type":"error","name":"DepositHandler__ParticipantsArraySizeIsZero","inputs":[]},{"type":"error","name":"DepositHandler__UserAddressCanNotBeZero","inputs":[]},{"type":"error","name":"DepositHandler__WithdrawStageAlreadyClosed","inputs":[]},{"type":"error","name":"EnforcedPause","inputs":[]},{"type":"error","name":"ExpectedPause","inputs":[]},{"type":"error","name":"SafeERC20FailedOperation","inputs":[{"name":"token","type":"address","internalType":"address"}]}],"bytecode":{"object":"0x61012060405234801561001157600080fd5b50604051611a23380380611a2383398101604081905261003091610168565b6000805460ff1916905560808790526001600160a01b0380871660e05260a085905260c08490528216610100526002610069828261030e565b506100947faf290d8680820aad922855f39b306097b20e28774d6c1ad35a20325630c3a02c866100a1565b50505050505050506103cc565b60008281526001602090815260408083206001600160a01b038516845290915281205460ff1661012c5760008381526001602081815260408084206001600160a01b0387168086529252808420805460ff19169093179092559051339286917f2f8788117e7eff1d82e926ec794901d17c78024a50270940304540a733656f0d9190a4506001610130565b5060005b92915050565b80516001600160a01b038116811461014d57600080fd5b919050565b634e487b7160e01b600052604160045260246000fd5b600080600080600080600060e0888a03121561018357600080fd5b8751965061019360208901610136565b95506101a160408901610136565b606089015160808a0151919650945092506101be60a08901610136565b60c08901519092506001600160401b038111156101da57600080fd5b8801601f81018a136101eb57600080fd5b80516001600160401b0381111561020457610204610152565b604051601f8201601f19908116603f011681016001600160401b038111828210171561023257610232610152565b6040528181528282016020018c101561024a57600080fd5b60005b828110156102695760208185018101518383018201520161024d565b5060006020838301015280935050505092959891949750929550565b600181811c9082168061029957607f821691505b6020821081036102b957634e487b7160e01b600052602260045260246000fd5b50919050565b601f82111561030957806000526020600020601f840160051c810160208510156102e65750805b601f840160051c820191505b8181101561030657600081556001016102f2565b50505b505050565b81516001600160401b0381111561032757610327610152565b61033b816103358454610285565b846102bf565b6020601f82116001811461036f57600083156103575750848201515b600019600385901b1c1916600184901b178455610306565b600084815260208120601f198516915b8281101561039f578785015182556020948501946001909201910161037f565b50848210156103bd5786840151600019600387901b60f8161c191681555b50505050600190811b01905550565b60805160a05160c05160e051610100516115cd610456600039600081816103da01526106ff0152600081816104010152818161075501528181610827015281816108d601528181610a980152610e3a0152600081816102ed0152610d610152600081816103b301526109470152600081816102aa015281816109880152610ca201526115cd6000f3fe608060405234801561001057600080fd5b50600436106101c35760003560e01c80636e553f65116100f9578063a63f137a11610097578063d547741f11610071578063d547741f14610423578063db2e21bc14610436578063ed88c68e1461043e578063fc7e286d1461044657600080fd5b8063a63f137a146103ae578063c45a0155146103d5578063c89039c5146103fc57600080fd5b80638456cb59116100d35780638456cb591461036857806391d1485414610370578063929066f514610383578063a217fddf146103a657600080fd5b80636e553f651461032d578063766e5e161461034057806377a45f6f1461035557600080fd5b80633f4ba83a116101665780635380b565116101405780635380b565146102d5578063551b7702146102e85780635c975abb1461030f5780636747fc131461031a57600080fd5b80633f4ba83a1461029d578063419759f5146102a557806351512b64146102cc57600080fd5b80631c2161c1116101a25780631c2161c114610228578063248a9ca3146102535780632f2ff15d1461027757806336568abe1461028a57600080fd5b8062f714ce146101c857806301ffc9a7146101dd5780631b2df85014610205575b600080fd5b6101db6101d636600461128e565b610488565b005b6101f06101eb3660046112ba565b6104f0565b60405190151581526020015b60405180910390f35b61021a60008051602061157883398151915281565b6040519081526020016101fc565b61023b6102363660046112eb565b610527565b6040516001600160a01b0390911681526020016101fc565b61021a6102613660046112eb565b6000908152600160208190526040909120015490565b6101db61028536600461128e565b610551565b6101db61029836600461128e565b610577565b6101db6105af565b61021a7f000000000000000000000000000000000000000000000000000000000000000081565b61021a60035481565b6101db6102e3366004611313565b6105d2565b61021a7f000000000000000000000000000000000000000000000000000000000000000081565b60005460ff166101f0565b61021a610328366004611399565b6106e2565b6101db61033b36600461128e565b61089d565b610348610b07565b6040516101fc91906113c3565b6101db610363366004611411565b610b95565b6101db610bb8565b6101f061037e36600461128e565b610bd8565b6101f0610391366004611444565b60066020526000908152604090205460ff1681565b61021a600081565b61021a7f000000000000000000000000000000000000000000000000000000000000000081565b61023b7f000000000000000000000000000000000000000000000000000000000000000081565b61023b7f000000000000000000000000000000000000000000000000000000000000000081565b6101db61043136600461128e565b610c03565b6101db610c29565b6101db610d05565b610479610454366004611444565b6005602052600090815260409020805460019091015460ff8082169161010090041683565b6040516101fc93929190611475565b336000908152600560205260409020600190810154610100900460ff16818160048111156104b8576104b861145f565b146104d6576040516370d750d160e11b815260040160405180910390fd5b6104de610d5e565b6104ea84846002610dae565b50505050565b60006001600160e01b03198216637965db0b60e01b148061052157506301ffc9a760e01b6001600160e01b03198316145b92915050565b6004818154811061053757600080fd5b6000918252602090912001546001600160a01b0316905081565b6000828152600160208190526040909120015461056d81610e9f565b6104ea8383610ea9565b6001600160a01b03811633146105a05760405163334bd91960e11b815260040160405180910390fd5b6105aa8282610f22565b505050565b6000805160206115788339815191526105c781610e9f565b6105cf610f8f565b50565b6000805160206115788339815191526105ea81610e9f565b82600081900361060d576040516372d9e5c360e01b815260040160405180910390fd5b60018360048111156106215761062161145f565b0361062b57426003555b60005b818110156106da57600184600481111561064a5761064a61145f565b14801561069e575060056000878784818110610668576106686114b0565b905060200201602081019061067d9190611444565b6001600160a01b0316815260208101919091526040016000206001015460ff165b6106d2576106d28686838181106106b7576106b76114b0565b90506020020160208101906106cc9190611444565b85610fe1565b60010161062e565b505050505050565b60006106ec611046565b6106f4610d5e565b336001600160a01b037f0000000000000000000000000000000000000000000000000000000000000000161461073d57604051636b0ae84f60e11b815260040160405180910390fd5b6040516370a0823160e01b81523060048201526000907f00000000000000000000000000000000000000000000000000000000000000006001600160a01b0316906370a0823190602401602060405180830381865afa1580156107a4573d6000803e3d6000fd5b505050506040513d601f19601f820116820180604052508101906107c891906114c6565b905060006107d684836114f5565b9050818411156108015760405163793a2f3f60e01b8152600481018590526024015b60405180910390fd5b60405163a9059cbb60e01b81526001600160a01b038681166004830152602482018690527f0000000000000000000000000000000000000000000000000000000000000000169063a9059cbb906044016020604051808303816000875af1158015610870573d6000803e3d6000fd5b505050506040513d601f19601f820116820180604052508101906108949190611508565b50949350505050565b6108a5611046565b6108ae8161106a565b604051636eb1769f60e11b81526001600160a01b0382811660048301523060248301526000917f00000000000000000000000000000000000000000000000000000000000000009091169063dd62ed3e90604401602060405180830381865afa15801561091f573d6000803e3d6000fd5b505050506040513d601f19601f8201168201806040525081019061094391906114c6565b90507f000000000000000000000000000000000000000000000000000000000000000042111561098657604051633eec048360e21b815260040160405180910390fd5b7f000000000000000000000000000000000000000000000000000000000000000083146109c957604051631f49b00160e01b8152600481018490526024016107f8565b828110156109ed57604051631c59319f60e11b8152600481018290526024016107f8565b6001600160a01b03821660009081526005602052604081208054859290610a1590849061152a565b90915550506001600160a01b03821660008181526005602090815260408083206001908101805461ff001916905560069092528220805460ff1916821790556004805491820181559091527f8a35acfbc15ff81a39ae7d344fd709f28e8600b4aa8c65c6b64bfe7fe36bd19b0180546001600160a01b0319169091179055610abf7f0000000000000000000000000000000000000000000000000000000000000000833086611091565b604080516001600160a01b0384168152602081018590527f5c5c52faf0379d6438710fab5583f7bf4001bbc1c48b855499e7f9a7183e0fec91015b60405180910390a1505050565b60028054610b149061153d565b80601f0160208091040260200160405190810160405280929190818152602001828054610b409061153d565b8015610b8d5780601f10610b6257610100808354040283529160200191610b8d565b820191906000526020600020905b815481529060010190602001808311610b7057829003601f168201915b505050505081565b600080516020611578833981519152610bad81610e9f565b6104ea848484610dae565b600080516020611578833981519152610bd081610e9f565b6105cf6110f8565b60009182526001602090815260408084206001600160a01b0393909316845291905290205460ff1690565b60008281526001602081905260409091200154610c1f81610e9f565b6104ea8383610f22565b600080516020611578833981519152610c4181610e9f565b60006004805480602002602001604051908101604052809291908181526020018280548015610c9957602002820191906000526020600020905b81546001600160a01b03168152600190910190602001808311610c7b575b505083519394507f0000000000000000000000000000000000000000000000000000000000000000925060009150505b82811015610cfe57610cf682858381518110610ce757610ce76114b0565b60200260200101516004610dae565b600101610cc9565b5050505050565b610d0d611046565b3360009081526006602052604090205460ff16610d3d576040516307a5956560e51b815260040160405180910390fd5b3360009081526005602052604090206001908101805460ff19169091179055565b427f0000000000000000000000000000000000000000000000000000000000000000600354610d8d919061152a565b1115610dac57604051636c575e0360e11b815260040160405180910390fd5b565b610db6611046565b610dbf8261106a565b610dc98383611135565b6001600160a01b0382166000908152600560205260409020600101805482919061ff001916610100836004811115610e0357610e0361145f565b02179055506001600160a01b038216600090815260056020908152604080832083905560069091529020805460ff19169055610e607f00000000000000000000000000000000000000000000000000000000000000008385611174565b604080516001600160a01b0384168152602081018590527f4482101800a5c2e900f4156e57e05e19ffd7b366cde579553d723fd3abb2180e9101610afa565b6105cf81336111a5565b6000610eb58383610bd8565b610f1a5760008381526001602081815260408084206001600160a01b0387168086529252808420805460ff19169093179092559051339286917f2f8788117e7eff1d82e926ec794901d17c78024a50270940304540a733656f0d9190a4506001610521565b506000610521565b6000610f2e8383610bd8565b15610f1a5760008381526001602090815260408083206001600160a01b0386168085529252808320805460ff1916905551339286917ff6391f5c32d9c69d2a47ea670b442974b53935d1edc7fd64eb21e047a839171b9190a4506001610521565b610f976111de565b6000805460ff191690557f5db9ee0a495bf2e6ff9c91a7834c1ba4fdd244a5e8aa4e537bd38aeae4b073aa335b6040516001600160a01b03909116815260200160405180910390a1565b600080516020611578833981519152610ff981610e9f565b6110028361106a565b6001600160a01b0383166000908152600560205260409020600101805483919061ff00191661010083600481111561103c5761103c61145f565b0217905550505050565b60005460ff1615610dac5760405163d93c066560e01b815260040160405180910390fd5b6001600160a01b0381166105cf5760405163a12cfebd60e01b815260040160405180910390fd5b6040516001600160a01b0384811660248301528381166044830152606482018390526104ea9186918216906323b872dd906084015b604051602081830303815290604052915060e01b6020820180516001600160e01b038381831617835250505050611201565b611100611046565b6000805460ff191660011790557f62e78cea01bee320cd4e420270b5ea74000d11b0c9f74754ebdbfc544b05a258610fc43390565b6001600160a01b03811660009081526005602052604090205482146111705760405163793a2f3f60e01b8152600481018390526024016107f8565b5050565b6040516001600160a01b038381166024830152604482018390526105aa91859182169063a9059cbb906064016110c6565b6111af8282610bd8565b6111705760405163e2517d3f60e01b81526001600160a01b0382166004820152602481018390526044016107f8565b60005460ff16610dac57604051638dfc202b60e01b815260040160405180910390fd5b600080602060008451602086016000885af180611224576040513d6000823e3d81fd5b50506000513d9150811561123c578060011415611249565b6001600160a01b0384163b155b156104ea57604051635274afe760e01b81526001600160a01b03851660048201526024016107f8565b80356001600160a01b038116811461128957600080fd5b919050565b600080604083850312156112a157600080fd5b823591506112b160208401611272565b90509250929050565b6000602082840312156112cc57600080fd5b81356001600160e01b0319811681146112e457600080fd5b9392505050565b6000602082840312156112fd57600080fd5b5035919050565b80356005811061128957600080fd5b60008060006040848603121561132857600080fd5b833567ffffffffffffffff81111561133f57600080fd5b8401601f8101861361135057600080fd5b803567ffffffffffffffff81111561136757600080fd5b8660208260051b840101111561137c57600080fd5b602091820194509250611390908501611304565b90509250925092565b600080604083850312156113ac57600080fd5b6113b583611272565b946020939093013593505050565b602081526000825180602084015260005b818110156113f157602081860181015160408684010152016113d4565b506000604082850101526040601f19601f83011684010191505092915050565b60008060006060848603121561142657600080fd5b8335925061143660208501611272565b915061139060408501611304565b60006020828403121561145657600080fd5b6112e482611272565b634e487b7160e01b600052602160045260246000fd5b838152821515602082015260608101600583106114a257634e487b7160e01b600052602160045260246000fd5b826040830152949350505050565b634e487b7160e01b600052603260045260246000fd5b6000602082840312156114d857600080fd5b5051919050565b634e487b7160e01b600052601160045260246000fd5b81810381811115610521576105216114df565b60006020828403121561151a57600080fd5b815180151581146112e457600080fd5b80820180821115610521576105216114df565b600181811c9082168061155157607f821691505b60208210810361157157634e487b7160e01b600052602260045260246000fd5b5091905056feaf290d8680820aad922855f39b306097b20e28774d6c1ad35a20325630c3a02ca2646970667358221220e772de028ca424612656bd5e052db38b8bc58e63553820556d700a6149b355cc64736f6c634300081c0033","linkReferences":{}},"methodIdentifiers":{"DEFAULT_ADMIN_ROLE()":"a217fddf","MANAGER()":"1b2df850","bootcampFinishTime()":"51512b64","bootcampName()":"766e5e16","bootcampStartTime()":"a63f137a","deposit(uint256,address)":"6e553f65","depositAmount()":"419759f5","depositToken()":"c89039c5","deposits(address)":"fc7e286d","donate()":"ed88c68e","emergencyWithdraw()":"db2e21bc","emergencyWithdrawParticipants(uint256)":"1c2161c1","exceptionalWithdraw(uint256,address,uint8)":"77a45f6f","factory()":"c45a0155","getRoleAdmin(bytes32)":"248a9ca3","grantRole(bytes32,address)":"2f2ff15d","hasRole(bytes32,address)":"91d14854","isParticipant(address)":"929066f5","pause()":"8456cb59","paused()":"5c975abb","renounceRole(bytes32,address)":"36568abe","revokeRole(bytes32,address)":"d547741f","supportsInterface(bytes4)":"01ffc9a7","unpause()":"3f4ba83a","updateStatusBatch(address[],uint8)":"5380b565","withdraw(uint256,address)":"00f714ce","withdrawAdmin(address,uint256)":"6747fc13","withdrawDuration()":"551b7702"},"id":12}