{"abi":[{"type":"constructor","inputs":[{"name":"_depositAmount","type":"uint256","internalType":"uint256"},{"name":"_depositToken","type":"address","internalType":"address"},{"name":"_manager","type":"address","internalType":"address"},{"name":"_bootcampStartTime","type":"uint256","internalType":"uint256"}],"stateMutability":"nonpayable"},{"type":"function","name":"DEFAULT_ADMIN_ROLE","inputs":[],"outputs":[{"name":"","type":"bytes32","internalType":"bytes32"}],"stateMutability":"view"},{"type":"function","name":"MANAGER","inputs":[],"outputs":[{"name":"","type":"bytes32","internalType":"bytes32"}],"stateMutability":"view"},{"type":"function","name":"allowEmergencyWithdraw","inputs":[],"outputs":[{"name":"","type":"bool","internalType":"bool"}],"stateMutability":"view"},{"type":"function","name":"approveEmergencyWithdraw","inputs":[],"outputs":[],"stateMutability":"nonpayable"},{"type":"function","name":"bootcampStartTime","inputs":[],"outputs":[{"name":"","type":"uint256","internalType":"uint256"}],"stateMutability":"view"},{"type":"function","name":"deposit","inputs":[{"name":"_amount","type":"uint256","internalType":"uint256"},{"name":"_depositor","type":"address","internalType":"address"}],"outputs":[],"stateMutability":"nonpayable"},{"type":"function","name":"depositAmount","inputs":[],"outputs":[{"name":"","type":"uint256","internalType":"uint256"}],"stateMutability":"view"},{"type":"function","name":"depositToken","inputs":[],"outputs":[{"name":"","type":"address","internalType":"contract IERC20"}],"stateMutability":"view"},{"type":"function","name":"deposits","inputs":[{"name":"","type":"address","internalType":"address"}],"outputs":[{"name":"depositedAmount","type":"uint256","internalType":"uint256"},{"name":"status","type":"uint8","internalType":"enum DepositHandler.Status"}],"stateMutability":"view"},{"type":"function","name":"discardEmergencyWithdraw","inputs":[],"outputs":[],"stateMutability":"nonpayable"},{"type":"function","name":"emergencyWithdraw","inputs":[],"outputs":[],"stateMutability":"nonpayable"},{"type":"function","name":"emergencyWithdrawParticipants","inputs":[{"name":"","type":"uint256","internalType":"uint256"}],"outputs":[{"name":"","type":"address","internalType":"address"}],"stateMutability":"view"},{"type":"function","name":"exceptionalWithdraw","inputs":[{"name":"_amount","type":"uint256","internalType":"uint256"},{"name":"_participant","type":"address","internalType":"address"},{"name":"_status","type":"uint8","internalType":"enum DepositHandler.Status"}],"outputs":[],"stateMutability":"nonpayable"},{"type":"function","name":"getRoleAdmin","inputs":[{"name":"role","type":"bytes32","internalType":"bytes32"}],"outputs":[{"name":"","type":"bytes32","internalType":"bytes32"}],"stateMutability":"view"},{"type":"function","name":"grantRole","inputs":[{"name":"role","type":"bytes32","internalType":"bytes32"},{"name":"account","type":"address","internalType":"address"}],"outputs":[],"stateMutability":"nonpayable"},{"type":"function","name":"hasRole","inputs":[{"name":"role","type":"bytes32","internalType":"bytes32"},{"name":"account","type":"address","internalType":"address"}],"outputs":[{"name":"","type":"bool","internalType":"bool"}],"stateMutability":"view"},{"type":"function","name":"paused","inputs":[],"outputs":[{"name":"","type":"bool","internalType":"bool"}],"stateMutability":"view"},{"type":"function","name":"renounceRole","inputs":[{"name":"role","type":"bytes32","internalType":"bytes32"},{"name":"callerConfirmation","type":"address","internalType":"address"}],"outputs":[],"stateMutability":"nonpayable"},{"type":"function","name":"revokeRole","inputs":[{"name":"role","type":"bytes32","internalType":"bytes32"},{"name":"account","type":"address","internalType":"address"}],"outputs":[],"stateMutability":"nonpayable"},{"type":"function","name":"supportsInterface","inputs":[{"name":"interfaceId","type":"bytes4","internalType":"bytes4"}],"outputs":[{"name":"","type":"bool","internalType":"bool"}],"stateMutability":"view"},{"type":"function","name":"updateStatusBatch","inputs":[{"name":"_participants","type":"address[]","internalType":"address[]"},{"name":"_status","type":"uint8","internalType":"enum DepositHandler.Status"}],"outputs":[],"stateMutability":"nonpayable"},{"type":"function","name":"withdraw","inputs":[{"name":"_amount","type":"uint256","internalType":"uint256"},{"name":"_depositor","type":"address","internalType":"address"}],"outputs":[],"stateMutability":"nonpayable"},{"type":"event","name":"DepositDone","inputs":[{"name":"depositor","type":"address","indexed":false,"internalType":"address"},{"name":"depositAmount","type":"uint256","indexed":false,"internalType":"uint256"}],"anonymous":false},{"type":"event","name":"DepositWithdrawn","inputs":[{"name":"depositor","type":"address","indexed":false,"internalType":"address"},{"name":"withdrawAmount","type":"uint256","indexed":false,"internalType":"uint256"}],"anonymous":false},{"type":"event","name":"Paused","inputs":[{"name":"account","type":"address","indexed":false,"internalType":"address"}],"anonymous":false},{"type":"event","name":"RoleAdminChanged","inputs":[{"name":"role","type":"bytes32","indexed":true,"internalType":"bytes32"},{"name":"previousAdminRole","type":"bytes32","indexed":true,"internalType":"bytes32"},{"name":"newAdminRole","type":"bytes32","indexed":true,"internalType":"bytes32"}],"anonymous":false},{"type":"event","name":"RoleGranted","inputs":[{"name":"role","type":"bytes32","indexed":true,"internalType":"bytes32"},{"name":"account","type":"address","indexed":true,"internalType":"address"},{"name":"sender","type":"address","indexed":true,"internalType":"address"}],"anonymous":false},{"type":"event","name":"RoleRevoked","inputs":[{"name":"role","type":"bytes32","indexed":true,"internalType":"bytes32"},{"name":"account","type":"address","indexed":true,"internalType":"address"},{"name":"sender","type":"address","indexed":true,"internalType":"address"}],"anonymous":false},{"type":"event","name":"Unpaused","inputs":[{"name":"account","type":"address","indexed":false,"internalType":"address"}],"anonymous":false},{"type":"error","name":"AccessControlBadConfirmation","inputs":[]},{"type":"error","name":"AccessControlUnauthorizedAccount","inputs":[{"name":"account","type":"address","internalType":"address"},{"name":"neededRole","type":"bytes32","internalType":"bytes32"}]},{"type":"error","name":"DepositHandler__ApprovedAmountLessThanDeposit","inputs":[{"name":"_approvedAmount","type":"uint256","internalType":"uint256"}]},{"type":"error","name":"DepositHandler__BootcampIsNotYetFinished","inputs":[]},{"type":"error","name":"DepositHandler__DepositingStageAlreadyClosed","inputs":[]},{"type":"error","name":"DepositHandler__EmergencyWithdrawIsNotApproved","inputs":[]},{"type":"error","name":"DepositHandler__IncorrectAmountForWithdrawal","inputs":[{"name":"_withdrawAmount","type":"uint256","internalType":"uint256"}]},{"type":"error","name":"DepositHandler__IncorrectDepositedAmount","inputs":[{"name":"_actualAmount","type":"uint256","internalType":"uint256"}]},{"type":"error","name":"DepositHandler__NotAllowedActionWithYourStatus","inputs":[]},{"type":"error","name":"DepositHandler__ParticipantAddressZero","inputs":[]},{"type":"error","name":"DepositHandler__ParticipantsArraySizeIsZero","inputs":[]},{"type":"error","name":"EnforcedPause","inputs":[]},{"type":"error","name":"ExpectedPause","inputs":[]}],"bytecode":{"object":"0x60e060405234801561001057600080fd5b5060405161114138038061114183398101604081905261002f91610135565b6000805460ff1916905560808490526001600160a01b03831660c05260a081905261007a7faf290d8680820aad922855f39b306097b20e28774d6c1ad35a20325630c3a02c83610084565b5050505050610179565b60008281526001602090815260408083206001600160a01b038516845290915281205460ff1661010f5760008381526001602081815260408084206001600160a01b0387168086529252808420805460ff19169093179092559051339286917f2f8788117e7eff1d82e926ec794901d17c78024a50270940304540a733656f0d9190a4506001610113565b5060005b92915050565b80516001600160a01b038116811461013057600080fd5b919050565b6000806000806080858703121561014b57600080fd5b8451935061015b60208601610119565b925061016960408601610119565b6060959095015193969295505050565b60805160a05160c051610f6f6101d2600039600081816102ea015281816105950152818161075d0152610a1e0152600081816102c301526106060152600081816102350152818161064701526109250152610f6f6000f3fe608060405234801561001057600080fd5b50600436106101415760003560e01c80635c975abb116100b8578063a217fddf1161007c578063a217fddf146102b6578063a63f137a146102be578063c89039c5146102e5578063d547741f1461030c578063db2e21bc1461031f578063fc7e286d1461032757600080fd5b80635c975abb1461026a5780636c0304c9146102755780636e553f651461027d57806377a45f6f1461029057806391d14854146102a357600080fd5b8063248a9ca31161010a578063248a9ca3146101de5780632f2ff15d1461020257806336568abe1461021557806341819d2714610228578063419759f5146102305780635380b5651461025757600080fd5b8062f714ce1461014657806301ffc9a71461015b5780631a26af7a146101835780631b2df850146101905780631c2161c1146101b3575b600080fd5b610159610154366004610d06565b61035f565b005b61016e610169366004610d32565b6103ba565b60405190151581526020015b60405180910390f35b60035461016e9060ff1681565b6101a5600080516020610f1a83398151915281565b60405190815260200161017a565b6101c66101c1366004610d63565b6103f1565b6040516001600160a01b03909116815260200161017a565b6101a56101ec366004610d63565b6000908152600160208190526040909120015490565b610159610210366004610d06565b61041b565b610159610223366004610d06565b610441565b610159610479565b6101a57f000000000000000000000000000000000000000000000000000000000000000081565b610159610265366004610d8b565b6104a6565b60005460ff1661016e565b61015961052c565b61015961028b366004610d06565b61055c565b61015961029e366004610e11565b610815565b61016e6102b1366004610d06565b610838565b6101a5600081565b6101a57f000000000000000000000000000000000000000000000000000000000000000081565b6101c67f000000000000000000000000000000000000000000000000000000000000000081565b61015961031a366004610d06565b610863565b610159610889565b610351610335366004610e44565b6004602052600090815260409020805460019091015460ff1682565b60405161017a929190610e75565b33600090815260046020526040902060019081015460ff168181600381111561038a5761038a610e5f565b146103a8576040516370d750d160e11b815260040160405180910390fd5b6103b484846002610988565b50505050565b60006001600160e01b03198216637965db0b60e01b14806103eb57506301ffc9a760e01b6001600160e01b03198316145b92915050565b6002818154811061040157600080fd5b6000918252602090912001546001600160a01b0316905081565b6000828152600160208190526040909120015461043781610acd565b6103b48383610ada565b6001600160a01b038116331461046a5760405163334bd91960e11b815260040160405180910390fd5b6104748282610b53565b505050565b610481610bc0565b600080516020610f1a83398151915261049981610acd565b506003805460ff19169055565b600080516020610f1a8339815191526104be81610acd565b8260008190036104e1576040516372d9e5c360e01b815260040160405180910390fd5b60005b818110156105245761051c86868381811061050157610501610ea7565b90506020020160208101906105169190610e44565b85610be6565b6001016104e4565b505050505050565b610534610bc0565b600080516020610f1a83398151915261054c81610acd565b506003805460ff19166001179055565b610564610bc0565b61056d81610c4b565b604051636eb1769f60e11b81526001600160a01b0382811660048301523060248301526000917f00000000000000000000000000000000000000000000000000000000000000009091169063dd62ed3e90604401602060405180830381865afa1580156105de573d6000803e3d6000fd5b505050506040513d601f19601f820116820180604052508101906106029190610ebd565b90507f000000000000000000000000000000000000000000000000000000000000000042111561064557604051633eec048360e21b815260040160405180910390fd5b7f0000000000000000000000000000000000000000000000000000000000000000831461068d57604051631f49b00160e01b8152600481018490526024015b60405180910390fd5b828110156106b157604051631c59319f60e11b815260048101829052602401610684565b6001600160a01b038216600090815260046020526040812060018101805460ff1916905580548592906106e5908490610ed6565b9091555050600280546001810182556000919091527f405787fa12a823e0f2b7631cc41b3ba8828b3321ca811111fa75cd3aa3bb5ace0180546001600160a01b0319166001600160a01b038481169182179092556040516323b872dd60e01b81526004810191909152306024820152604481018590527f0000000000000000000000000000000000000000000000000000000000000000909116906323b872dd906064016020604051808303816000875af11580156107a8573d6000803e3d6000fd5b505050506040513d601f19601f820116820180604052508101906107cc9190610ef7565b50604080516001600160a01b0384168152602081018590527f5c5c52faf0379d6438710fab5583f7bf4001bbc1c48b855499e7f9a7183e0fec91015b60405180910390a1505050565b600080516020610f1a83398151915261082d81610acd565b6103b4848484610988565b60009182526001602090815260408084206001600160a01b0393909316845291905290205460ff1690565b6000828152600160208190526040909120015461087f81610acd565b6103b48383610b53565b600080516020610f1a8339815191526108a181610acd565b60035460ff166108c457604051631e21ef5760e21b815260040160405180910390fd5b6000600280548060200260200160405190810160405280929190818152602001828054801561091c57602002820191906000526020600020905b81546001600160a01b031681526001909101906020018083116108fe575b505083519394507f0000000000000000000000000000000000000000000000000000000000000000925060009150505b82811015610981576109798285838151811061096a5761096a610ea7565b60200260200101516002610988565b60010161094c565b5050505050565b610990610bc0565b61099982610c4b565b6109a38383610c72565b6001600160a01b038216600090815260046020526040902060019081018054839260ff19909116908360038111156109dd576109dd610e5f565b02179055506001600160a01b03828116600081815260046020819052604080832092909255905163a9059cbb60e01b815290810191909152602481018590527f00000000000000000000000000000000000000000000000000000000000000009091169063a9059cbb906044016020604051808303816000875af1158015610a69573d6000803e3d6000fd5b505050506040513d601f19601f82011682018060405250810190610a8d9190610ef7565b50604080516001600160a01b0384168152602081018590527f4482101800a5c2e900f4156e57e05e19ffd7b366cde579553d723fd3abb2180e9101610808565b610ad78133610cb1565b50565b6000610ae68383610838565b610b4b5760008381526001602081815260408084206001600160a01b0387168086529252808420805460ff19169093179092559051339286917f2f8788117e7eff1d82e926ec794901d17c78024a50270940304540a733656f0d9190a45060016103eb565b5060006103eb565b6000610b5f8383610838565b15610b4b5760008381526001602090815260408083206001600160a01b0386168085529252808320805460ff1916905551339286917ff6391f5c32d9c69d2a47ea670b442974b53935d1edc7fd64eb21e047a839171b9190a45060016103eb565b60005460ff1615610be45760405163d93c066560e01b815260040160405180910390fd5b565b600080516020610f1a833981519152610bfe81610acd565b610c0783610c4b565b6001600160a01b038316600090815260046020526040902060019081018054849260ff1990911690836003811115610c4157610c41610e5f565b0217905550505050565b6001600160a01b038116610ad75760405163f8ed173960e01b815260040160405180910390fd5b6001600160a01b0381166000908152600460205260409020548214610cad5760405163793a2f3f60e01b815260048101839052602401610684565b5050565b610cbb8282610838565b610cad5760405163e2517d3f60e01b81526001600160a01b038216600482015260248101839052604401610684565b80356001600160a01b0381168114610d0157600080fd5b919050565b60008060408385031215610d1957600080fd5b82359150610d2960208401610cea565b90509250929050565b600060208284031215610d4457600080fd5b81356001600160e01b031981168114610d5c57600080fd5b9392505050565b600060208284031215610d7557600080fd5b5035919050565b803560048110610d0157600080fd5b600080600060408486031215610da057600080fd5b833567ffffffffffffffff811115610db757600080fd5b8401601f81018613610dc857600080fd5b803567ffffffffffffffff811115610ddf57600080fd5b8660208260051b8401011115610df457600080fd5b602091820194509250610e08908501610d7c565b90509250925092565b600080600060608486031215610e2657600080fd5b83359250610e3660208501610cea565b9150610e0860408501610d7c565b600060208284031215610e5657600080fd5b610d5c82610cea565b634e487b7160e01b600052602160045260246000fd5b8281526040810160048310610e9a57634e487b7160e01b600052602160045260246000fd5b8260208301529392505050565b634e487b7160e01b600052603260045260246000fd5b600060208284031215610ecf57600080fd5b5051919050565b808201808211156103eb57634e487b7160e01b600052601160045260246000fd5b600060208284031215610f0957600080fd5b81518015158114610d5c57600080fdfeaf290d8680820aad922855f39b306097b20e28774d6c1ad35a20325630c3a02ca26469706673582212202e5389d909a43ff31236b1d35b9629fa0828fcda542fa80de65808f0a78a06c164736f6c634300081c0033","linkReferences":{}},"methodIdentifiers":{"DEFAULT_ADMIN_ROLE()":"a217fddf","MANAGER()":"1b2df850","allowEmergencyWithdraw()":"1a26af7a","approveEmergencyWithdraw()":"6c0304c9","bootcampStartTime()":"a63f137a","deposit(uint256,address)":"6e553f65","depositAmount()":"419759f5","depositToken()":"c89039c5","deposits(address)":"fc7e286d","discardEmergencyWithdraw()":"41819d27","emergencyWithdraw()":"db2e21bc","emergencyWithdrawParticipants(uint256)":"1c2161c1","exceptionalWithdraw(uint256,address,uint8)":"77a45f6f","getRoleAdmin(bytes32)":"248a9ca3","grantRole(bytes32,address)":"2f2ff15d","hasRole(bytes32,address)":"91d14854","paused()":"5c975abb","renounceRole(bytes32,address)":"36568abe","revokeRole(bytes32,address)":"d547741f","supportsInterface(bytes4)":"01ffc9a7","updateStatusBatch(address[],uint8)":"5380b565","withdraw(uint256,address)":"00f714ce"},"id":34}